:020000040800F2
:200000000000012031810008098000080B8000080D8000080F80000811800008000000001C
:20002000000000000000000000000000138000081580000800000000178000081980000848
:20004000818100088181000881810008818100088181000881810008818100088181000850
:20006000818100088181000881810008218000088181000881810008818100088181000891
:20008000818100088181000881810008818100088181000881810008818100088181000810
:2000A000818100088181000881810008818100088181000800000000000000008181000804
:2000C000818100088181000881810008318000088181000841800008818100085180000893
:2000E0008181000881810008000000000000000000000000000000000000000000000000EC
:200100000000000081810008000000008181000800000000000000008181000881810008B7
:2001200081810008818100088181000881810008818100080000000000000000000000008D
:20014000818100088181000881810008000000008181000881810008818100088181000859
:2001600081810008818100088181000800000000818100088181000800000000000000004D
:20018000818100088181000881810008FFFFFFFF10B5054C237833B9044B13B10448AFF3A7
:2001A00000800123237010BDD0000020000000002493000808B5034B1BB103490348AFF37C
:2001C000008008BD00000000D400002024930008034613F8012B002AFBD1181A013870478F
:2001E00001F0FF01102A2BDB10F0070F08D010F8013B013A8B422DD010F0070F42B3F6D1C5
:20020000F0B441EA012141EA014122F007047FF000070023F0E80256083C85EA010586EA71
:20022000010685FA47F5A3FA87F586FA47F6A5FA87F68EB9EED1F0BC01F0FF0102F007026C
:2002400032B110F8013B013A83EA010313B1F8D10020704701387047002D06BF35460338CF
:20026000073815F0010F07D1013015F4807F02BF013015F4C03F0130F0BC0138704700BF93
:2002800081F0004102E000BF83F0004330B54FEA41044FEA430594EA050F08BF90EA020F8D
:2002A0001FBF54EA000C55EA020C7FEA645C7FEA655C00F0E2804FEA5454D4EB5555B8BF63
:2002C0006D420CDD2C4480EA020281EA030382EA000083EA010180EA020281EA0303362D1A
:2002E00088BF30BD11F0004F4FEA01314FF4801C4CEA113102D0404261EB410113F0004F84
:200300004FEA03334CEA133302D0524263EB430394EA050F00F0A780A4F10104D5F1200EC1
:200320000DDB02FA0EFC22FA05F2801841F1000103FA0EF2801843FA05F359410EE0A5F109
:2003400020050EF1200E012A03FA0EFC28BF4CF0020C43FA05F3C01851EBE37101F0004515
:2003600007D54FF0000EDCF1000C7EEB00006EEB0101B1F5801F1BD3B1F5001F0CD349088F
:200380005FEA30004FEA3C0C04F101044FEA445212F5800F80F09A80BCF1004F08BF5FEA6E
:2003A000500C50F1000041EB045141EA050130BD5FEA4C0C404141EB0101013C28BFB1F5E7
:2003C000801FE9D291F0000F04BF01460020B1FA81F308BF2033A3F10B03B3F120020CDA82
:2003E0000C3208DD02F1140CC2F10C0201FA0CF021FA02F10CE002F11402D8BFC2F1200C96
:2004000001FA02F120FA0CFCDCBF41EA0C019040E41AA2BF01EB0451294330BD6FEA0404CF
:200420001F3C1CDA0C340EDC04F11404C4F1200220FA04F001FA02F340EA030021FA04F320
:2004400045EA030130BDC4F10C04C4F1200220FA02F001FA04F340EA0300294630BD21FA3E
:2004600004F0294630BD94F0000F83F4801306BF81F480110134013D4EE77FEA645C18BF1C
:200480007FEA655C29D094EA050F08BF90EA020F05D054EA000C04BF1946104630BD91EA56
:2004A000030F1EBF0021002030BD5FEA545C05D14000494128BF41F0004130BD14F58004B3
:2004C0003CBF01F5801130BD01F0004545F0FE4141F470014FF0000030BD7FEA645C1ABF2F
:2004E000194610467FEA655C1CBF0B46024650EA013406BF52EA033591EA030F41F400211E
:2005000030BD00BF90F0000F04BF0021704730B54FF4806404F132044FF000054FF000014A
:2005200050E700BF90F0000F04BF0021704730B54FF4806404F1320410F0004548BF404296
:200540004FF000013EE700BF42004FEAE2014FEA31014FEA02701FBF12F07F4393F07F4F10
:2005600081F06051704732F07F4208BF704793F07F4F04BF41F40021704730B54FF4607424
:2005800001F0004521F000411CE700BF50EA010208BF704730B54FF000050AE050EA010206
:2005A00008BF704730B511F0004502D5404261EB41014FF4806404F132045FEA915C3FF4F0
:2005C000D8AE4FF003025FEADC0C18BF03325FEADC0C18BF033202EBDC02C2F1200300FA3C
:2005E00003FC20FA02F001FA03FE40EA0E0021FA02F11444BDE600BF70B54FF0FF0C4CF445
:20060000E06C1CEA11541DBF1CEA135594EA0C0F95EA0C0F00F0DEF82C4481EA030621EAF1
:200620004C5123EA4C5350EA013518BF52EA033541F4801143F4801338D0A0FB02CE4FF074
:200640000005E1FB02E506F00042E0FB03E54FF00006E1FB03569CF0000F18BF4EF0010E9E
:20066000A4F1FF04B6F5007F64F5407404D25FEA4E0E6D4146EB060642EAC62141EA555161
:200680004FEAC52040EA5E504FEACE2EB4F1FD0C88BFBCF5E06F1ED8BEF1004F08BF5FEA36
:2006A000500E50F1000041EB045170BD06F0004646EA010140EA020081EA0301B4EB5C04E5
:2006C000C2BFD4EB0C0541EA045170BD41F480114FF0000E013C00F3AB8014F1360FDEBFC7
:2006E000002001F0004170BDC4F10004203C35DA0C341BDC04F11404C4F1200500FA05F347
:2007000020FA04F001FA05F240EA020001F0004221F0004110EBD37021FA04F642EB0601A1
:200720005EEA430E08BF20EAD37070BDC4F10C04C4F1200500FA04F320FA05F001FA04F24F
:2007400040EA020001F0004110EBD37041F100015EEA430E08BF20EAD37070BDC4F1200516
:2007600000FA05F24EEA020E20FA04F301FA05F243EA020321FA04F001F0004121FA04F2B9
:2007800020EA020000EBD3705EEA430E08BF20EAD37070BD94F0000F0FD101F0004640005B
:2007A00041EB010111F4801F08BF013CF7D041EA060195F0000F18BF704703F000465200BD
:2007C00043EB030313F4801F08BF013DF7D043EA0603704794EA0C0F0CEA135518BF95EA39
:2007E0000C0F0CD050EA410618BF52EA4306D1D181EA030101F000414FF0000070BD50EA3C
:20080000410606BF1046194652EA430619D094EA0C0F02D150EA013613D195EA0C0F05D178
:2008200052EA03361CBF104619460AD181EA030101F0004141F0FE4141F470014FF00000E2
:2008400070BD41F0FE4141F4780170BD70B54FF0FF0C4CF4E06C1CEA11541DBF1CEA135570
:2008600094EA0C0F95EA0C0F00F0A7F8A4EB050481EA030E52EA03354FEA013100F08880CB
:200880004FEA03334FF0805545EA131343EA12634FEA022245EA111545EA10654FEA002629
:2008A0000EF000419D4208BF964244F1FD0404F5407402D25B084FEA3202B61A65EB0305CC
:2008C0005B084FEA32024FF480104FF4002CB6EB020E75EB030E22BFB61A754640EA0C0042
:2008E0005B084FEA3202B6EB020E75EB030E22BFB61A754640EA5C005B084FEA3202B6EBA3
:20090000020E75EB030E22BFB61A754640EA9C005B084FEA3202B6EB020E75EB030E22BF51
:20092000B61A754640EADC0055EA060E18D04FEA051545EA16754FEA06164FEAC30343EA5D
:2009400052734FEAC2025FEA1C1CC0D111F4801F0BD141EA00014FF000004FF0004CB6E7B0
:2009600011F4801F04BF01430020B4F1FD0C88BFBCF5E06F3FF6AFAEB5EB030C04BFB6EB12
:20098000020C5FEA500C50F1000041EB045170BD0EF0004E4EEA113114EB5C04C2BFD4EB50
:2009A0000C0541EA045170BD41F480114FF0000E013C90E645EA060E8DE60CEA135594EA21
:2009C0000C0F08BF95EA0C0F3FF43BAF94EA0C0F0AD150EA01347FF434AF95EA0C0F7FF438
:2009E00025AF104619462CE795EA0C0F06D152EA03353FF4FDAE1046194622E750EA410659
:200A000018BF52EA43067FF4C5AE50EA41047FF40DAF52EA43057FF4EBAE12E74FEA4102E1
:200A200012F5001215D211D56FF47873B3EB625212D94FEAC12343F0004343EA505311F0E1
:200A4000004F23FA02F018BF404270474FF00000704750EA013005D111F0004008BF6FF08A
:200A6000004070474FF00000704700BF4A0011D212F5001211D20DD56FF47873B3EB62521F
:200A80000ED44FEAC12343F0004343EA505323FA02F070474FF00000704750EA013002D117
:200AA0004FF0FF3070474FF00000704753B94AB9002908BF00281CBF4FF0FF314FF0FF303C
:200AC00000F06EB9ADF1080C6DE904CE00F006F8DDF804E0DDE9022304B070472DE9F047DB
:200AE000089D04468C46002B40F083808A42174647D9B2FA82F242B1C2F1200024FA00F09A
:200B00009140974040EA010C94404FEA1748230CBCFBF8F61FFA87FE08FB16C143EA0143CD
:200B200006FB0EF1994209D9FB1806F1FF3080F01981994240F21681023E3B445B1AA4B287
:200B4000B3FBF8F008FB103344EA034400FB0EFEA64509D93C1900F1FF3380F00581A64517
:200B600040F2028102383C4440EA0640A4EB0E0400261DB1D4400023C5E900433146BDE8BD
:200B8000F08702B9FFDEB2FA82F2002A50D1CB1B4FEA174E1FFA87F80126B3FBFEFC210CC3
:200BA0000EFB1C3341EA034108FB0CF38B4207D979180CF1FF3002D28B4200F2E98084463C
:200BC000C91AA3B2B1FBFEF00EFB101143EA014408FB00F8A04507D93C1900F1FF3302D29B
:200BE000A04500F2D9801846A4EB080440EA0C40BFE78B4209D9002D00F0B1800026C5E9DF
:200C0000000130463146BDE8F087B3FA83F6002E4AD18B4202D3824200F2B880841A61EBE1
:200C2000030101208C46002DA8D0C5E9004CA5E7C2F1200320FA03F6974001FA02F04FEAAC
:200C4000174ED9403043030CB1FBFEF61FFA87F80EFB161143EA014306FB08F1994204FAE8
:200C600002F409D9FB1806F1FF3C80F08D80994240F28A80023E3B445B1A81B2B3FBFEF0C0
:200C80000EFB103341EA034100FB08F38B4207D9791800F1FF3C73D28B4271D90238394426
:200CA000CB1A40EA064678E7C6F1200C03FA06F422FA0CF31C4320FA0CF701FA06F34FEADC
:200CC000144E21FA0CF11F433B0CB1FBFEF91FFA84F80EFB191143EA014109FB08FA8A4542
:200CE00002FA06F200FA06F308D9611809F1FF3048D28A4546D9A9F102092144A1EB0A01E1
:200D0000BFB2B1FBFEF00EFB101147EA014700FB08F8B84507D9E71900F1FF312ED2B8452F
:200D20002CD90238274440EA0940A7EB0807A0FB02894F45C64649461AD317D05DB1B3EB20
:200D40000E0267EB010707FA0CFCF2404CEA0202F740C5E9002700263146BDE8F0872E467B
:200D600028460BE70646E9E61846FDE64345E5D2B8EB020E69EB04010138DFE70846D2E766
:200D800060468DE78146B9E7664675E730464AE7ACF1020C394413E702383C4424E700BF7D
:200DA000704700BF104B1B680BB90120704710B504464FF47A70B0FBF3F30C4A1068B0FBFD
:200DC000F3F000F0E1FD68B90F2C01D901200AE0002221464FF0FF3000F096FD044B1C60DC
:200DE000002000E0012010BD00000020640000200400002010B5032000F074FD0020FFF7DE
:200E0000D1FF10B10124204610BD044606F0A6FFF9E70000034A1368034909680B441360DD
:200E2000704700BFE405002000000020014B1868704700BFE405002030B583B000230193F9
:200E4000002800F0D1800446436D002B36D023689A6812F0005F05D09A6822F0204222F0B3
:200E60003F029A602268936813F0805F17D1936823F0104323F03F0343F0805393605B4B93
:200E80001B689B095A4AA2FB03239B090193019B2BB1019B013B0193019B002BF9D121688E
:200EA0008B6813F0805F10D1636D43F010036365A36D43F00103A365012007E006F072FFE0
:200EC0000023A36584F85030C1E700208B68626D02F0100203F0040313437ED1636D23F4D7
:200EE000817343F0020363658B6813F0010F0BD1404B9B6813F0010F06D13F4A936823F409
:200F00007C1361680B43936094F82020636BE1680B43A1680B43617E43EA413343EA0243BE
:200F2000012A3AD0A26A22B102F47072E16A0A4313432168CD68314A2A401343CB6021682A
:200F40008B688A6802F0080203F00403134315D1CA68257E94F830305B0043EA853322F463
:200F6000804222F002021343CB6094F83830012B18D02268136923F0010313612369012BC7
:200F800022D02268136B23F00F031363636D23F0030343F00103636524E0626A013A43EA9C
:200FA0004243BFE721680A69E36B256C2B4322F4FF6222F004021343626C1343A26C134350
:200FC00043F001030B61D9E721680A6BE369013B22F00F0213430B63D8E7636D43F010036C
:200FE0006365012003B030BD0120FBE764000020632D3E05000004500003045007C0F0FFAD
:20100000F8B506460C461546FFF710FF07463268136834EA030312D0B5F1FF3FF8D0FFF71B
:2010200005FFC01BA84201D8002DF0D1736D43F004037365002386F85030032029E0B4F538
:20104000807F27D00BD8022C1CD0802C34D1736D43F48033736580231360002019E0B4F572
:20106000007F20D0B4F5806F26D1736D43F480437365B36D43F00803B3654FF480631360B1
:20108000002006E0736D43F400637365022313600020F8BD736D43F4003373654FF4807333
:2010A00013600020F5E7736D43F4802373654FF4007313600020ECE7736B4BB9736D43F41A
:2010C00080637365B36D43F00203B3650020E0E7102313600020DCE708B5806A04F058F88A
:2010E00008BD08B50346806A426D12F0500F30D1436D43F40073436503681A6812F0080F22
:2011000014D0DA6812F4406F20D1DB6813F4005F1CD1436D23F480734365436D13F4805F75
:2011200014D1436D43F0010343650FE0DB6813F0020F0BD1436D23F480734365436D13F400
:20114000805F03D1436D43F00103436504F01AF808BD426D12F0100F04D1C26C526B184694
:201160009047F5E704F015F8F2E708B5806A436D43F040034365836D43F00403836504F067
:2011800008F808BDF0B482B00022019290F85020012A00F025820346012280F85020026887
:2011A000926812F0040F0AD0426D42F0200242650120002283F8502002B0F0BC70474A68A7
:2011C000052A09D8023A032A00F29180DFE802F00285888B0C224A604868850905F00C0524
:2011E0001C6830342E5900F01F000A68C2F3846282401F2707FA00F026EA000002432A519B
:201200001C68A268A06800F0080002F00402024329D10868C50D05F0040514342A59C0F34B
:2012200004500726864022EA06028E6806FA00F002432A511868C2680D69042D5AD000F141
:20124000600454F82570C2F3C10250004A698240086800F0F840B64E3E403043024342F008
:20126000004244F825201868826812F0010F14D10C68D0F8B050CA6802F01806AD4AF240A3
:201280002240C4F3120425EA04042243C0F8B020C868A94A904200F0C0800A68A7490A4248
:2012A00000F09281A649896801F0E074A548824200F03481A448824200F06981A348824277
:2012C00040F08A8111F4800F40F088811968A04A914200F06F8100206BE712224A607BE736
:2012E00018224A6078E74FF480724A6074E706224A6071E7026E046EC4F384640A68C2F39F
:20130000120555BBC2F38465AC4253D000F16404456E406EC0F38460C2F3846282425AD01D
:201320001A6802F16804906E906EC0F384600A68C2F3846282425FD01A6802F16C04D06E16
:20134000D06EC0F384600A68C2F3846282428AD1226822F00042226085E792FAA2F5B5FAEE
:2013600085F5AC4226D000F16404456E406EC0F3846092FAA2F2B2FA82F282422BD01A683D
:2013800002F16804906E906EC0F384600A6892FAA2F2B2FA82F282422ED01A6802F16C0402
:2013A000D06ED06EC0F384600A6892FAA2F2B2FA82F2CBE7026E22F0004202661A6802F115
:2013C0006404506E506EC0F384600A68C2F31205002DA1D0CDE7226822F0004222601A6820
:2013E00002F16804906E906EC0F384600A68C2F31205002DCBD19BE7226822F00042226012
:201400001A6802F16C04D06ED06EC0F384600A68C2F31205002D97D0C7E71C680A68C2F3A9
:201420001200B8B9900E013000F01F05092D3CD9920E013202F01F00920602F0F84201252D
:201440008540154300EB40021E3A120542F000722A4334E092FAA2F0B0FA80F0013000F055
:201460001F0009283CD992FAA2F5B5FA85F592FAA2F0B0FA80F00135AD0605F0F845013037
:2014800000F01F00012606FA00F0054392FAA2F0B0FA80F0304400F01F0000EB4000A0F167
:2014A0001E02120542F00072D2E7800600F0F8400122AA40104305EB450212050243D50D15
:2014C00005F0040514342859C2F304520726964020EA06008E6806FA02F202432A51DCE6BB
:2014E00092FAA2F0B0FA80F092FAA2F5B5FA85F50130800600F0F840013505F01F05012613
:2015000006FA05F5284392FAA2F2B2FA82F2324402F01F0202EB42021205CFE711F4000F8B
:2015200054D119680A4A914214D0002041E600BF00F0FF03FFFF070000007F4000000880B6
:2015400000030450000052C7000084CB010000800000045023498A6822F0E072224342F49A
:2015600000028A60204A126892092049A1FB0212920902EB420292000192019A42B3019ACB
:20158000013A0192019A002AF9D1002011E611F0807F1FD11968164A914201D0002008E654
:2015A00010498A6822F0E072224342F080728A600020FEE50B498A6822F0E072224342F4C1
:2015C00080028A600020F4E50020F2E50020F0E50020EEE50020ECE50020EAE50020E8E5FA
:2015E0000220E9E50003045064000020632D3E050000045038B503689A6812F0010F3DD17F
:20160000044699681E4A114209D0436D43F010034365836D43F00103836501202FE09A680C
:2016200022F0004222F03F0242F001029A60FFF7FDFB054604E0FFF7F9FB431B022B11D859
:2016400023681A6812F0010F16D19A6812F0010FF1D19A6822F0004222F03F0242F00102D0
:201660009A60E8E7636D43F010036365A36D43F00103A365012002E0002000E0002038BD5C
:201680003F00008003689B6813F0040F3AD110B5044690F85030012B36D0012380F8503097
:2016A000FFF7A8FF50BB636D23F4706323F0010343F480736365636D13F4805F1ABFA36D20
:2016C00023F006030023A36523681C221A60002384F850302268D36813F0007F05D0636D75
:2016E00023F4405343F480536365936823F0004323F03F0343F00403936010BD002384F82F
:201700005030FAE7022070470220F6E703689B6813F0040F4DD170B504460E46154690F848
:201720005030012B47D0012380F85030FFF762FF00283AD1636D23F4706323F0010343F438
:2017400080736365636D13F4805F1ABFA36D23F006030023A365E36C184ADA62E36C184A4A
:201760001A63E36C174A5A6323681C221A60002384F850302268536843F010035360226855
:20178000D36843F00103D36021682B4632464031E06C00F0B5FA2268936823F0004323F0E8
:2017A0003F0343F00403936070BD002384F85030FAE7022070470220F6E700BFE3100008FB
:2017C000D91000086B11000838B5036899689A6812F0010F36D0044611F0020F34D19A68BE
:2017E00002F00D02012A09D0436D43F010034365836D43F001038365012024E09A6822F0FE
:20180000004222F03F0242F002029A60036803221A60FFF70BFB054623689B6813F0010F11
:201820000ED0FFF703FB401B0228F5D9636D43F010036365A36D43F00103A365012002E053
:20184000002000E0002038BD0020FCE730B583B00023019390F85030012B41D004460D46BF
:20186000012380F85030FFF7AFFF80BB636D23F4885323F0020343F002036365226893680E
:2018800023F0404323F03F0305F080452B4343F00043936022689368002B06DB636D23F058
:2018A000030343F00103636515E0019B01330193019BB3F5912FEED3636D23F0120343F0DA
:2018C00010036365002384F85030012006E0636D43F010036365002384F8503003B030BD6A
:2018E0000220FBE70749CA68030203F4E06322F4E0621204120C134343F0BF6343F4003382
:20190000CB60704700ED00E030B4164BDB68C3F30223C3F10704042C28BF04241D1D062D4A
:201920008CBF033B00234FF0FF3505FA04F421EA0401994005FA03F322EA03021143002826
:2019400009DB0901C9B200F1604000F5614080F8001330BC704700F00F000901C9B2024BF8
:201960001954F6E700ED00E014ED00E0002808DB420900F01F00012303FA00F0014B43F872
:201980002200704700E100E00138B0F1807F0AD2064B5860064AF02182F8231000209860C9
:2019A00007221A6070470120704700BF10E000E000ED00E0F0B4032A29D94FEA920C0C469D
:2019C00000250668277863781B0443EA0763E7783B43A77843EA0723336001350434654546
:2019E000EFD3032A98BF4FF0010C12F0030215D0012A0FD0022A15D111F82C2001EB8C0C74
:201A00009CF8013043EA02230268138006E04FF0000CEAE7036811F82C201A70036818687B
:201A2000F0BC7047032AF9D111F82C2001EB8C0C9CF8013043EA02230268138003689CF860
:201A400002201A70EAE7F0B4012A1CD95708002301F1020C056831F823603CF8234044EAE5
:201A600006442C600133BB42F4D3012A98BF012712F0010F03D0036831F827201A80036829
:201A80001868F0BC70470027F2E70000002838D010B50446437F1BB30223637723791BBB23
:201AA0002368194A5A612268936823F018039360637913BB23684FF0FF321A612268936832
:201AC00023F0600361690B4393602268936823F08003A1690B43936001236377002010BD34
:201AE000037706F0B1F9D7E7E268A168204600F058F80028DCD00120F1E7236822691A61B7
:201B0000DCE70120704700BFB71DC10410B5044602234377036A022B17D0032B05D0012B34
:201B200010D000200123637710BD42B1043901EB8202236851F8040F18609142F9D12368B3
:201B40001868EFE7FFF736FFECE7FFF77CFFE9E710B50446022343770068836843F0010378
:201B60008360236A022B18D0032B05D0012B10D000200123637710BD42B1043901EB820246
:201B8000236851F8040F18609142F9D123681868EFE72046FFF70EFFEBE72046FFF753FF7F
:201BA000E7E710B41E2404F01F0321FA03F313F0010F0AD1013CB4F1FF3FF4D1102A2FD01E
:201BC000182A2FD0A2B101201BE0182A24D8DFE802F00F232323232323231F23232323238C
:201BE00023231B232323232323230D00062C15D80368596101688B6823F018031A438A606D
:201C000000205DF8044B7047072CF1D90120F8E70F2CEDD90120F4E70120F2E70120F0E75D
:201C20000120EEE70120ECE7002856D010B4034600682B4A904245D82A4A02442A49A1FBCA
:201C40000212120992005A64284A1A64022283F82520016821F4FF4121F070019A68DC68AB
:201C600022431C6922435C6922439C692243DC6922431C6A22430A4302609A68B2F5804FC5
:201C800016D0196C194A91420CBF194919490A68586C00F01C040F20A04022EA00020A6047
:201CA0000C685A6C02F01C005A68824022430A600020D863012283F8252083F824005DF857
:201CC000044B70470C4A02440749A1FB0212120992005A64094A1A64B8E70120704700BFF0
:201CE00007040240F8FFFDBFCDCCCCCC00000240A8000240A8040240F8FBFDBF00040240A4
:201D000070B490F82440012C45D0012480F8244090F82540E4B2012C05D0002380F82430FC
:201D2000022070BC7047022480F825400024C46305682C6824F001042C60056C446C04F095
:201D40001C060124B4406C60046863608368102B11D0036899600368DA60036B83B1026831
:201D6000136843F00E0313600268136843F0010313600020D5E703689A600368D960ECE7EA
:201D80000268136823F0040313600268136843F00A031360E8E70220C3E708B590F8253004
:201DA000DBB2022B03D00423C363012008BD0268136823F00E0313600268136823F00103EB
:201DC0001360016C436C03F01C03012202FA03F34B6080F82520002380F82430836B13B144
:201DE00098470020E2E70020E0E738B5036C196804682568436C03F01C0304229A400A4251
:201E000015D015F0040F12D0236813F0200F03D1236823F004032360016C436C03F01C02FD
:201E2000042393404B60036B03B1984738BD02229A400A421CD015F0020F19D0236813F044
:201E4000200F06D1236823F00A032360012380F82530016C436C03F01C02022393404B608D
:201E6000002380F82430C36A002BDFD09847DDE7082202FA03F30B42D8D015F0080FD5D0F7
:201E8000236823F00E032360016C436C03F01C03012202FA03F34B60C26380F8252000231D
:201EA00080F82430436B002BC0D09847BEE70000074B5B69002B01DB00207047044B054AD7
:201EC0009A6002F188329A605869C00F704700BF0020024023016745034A536943F00043AA
:201EE00053610020704700BF00200240074B5B6913F0804F07D0054B054ADA6002F1443235
:201F0000DA60002070470120704700BF002002403B2A1908034A536943F08043536100205E
:201F2000704700BF0020024070B50446FEF77EFF0646144D2B6913F4803F09D0B4F1FF3F25
:201F4000F8D0FEF773FF801BA042F3D3032015E00C4B1B690C4A134009D10A4B1B6913F0BD
:201F6000010F0CD0074B01221A61002006E007494A681A434A60034A1361012070BD002047
:201F8000FCE700BF00200240FAC302000800002008B5054A536943F0006353614CF2503086
:201FA000FFF7C2FF08BD00BF002002402DE9F0419D4B1B78012B00F0348104469A4B01229F
:201FC0001A7000225A60036813F0010F17D10025236813F0020F44D1236813F0040F5ED18C
:201FE000236813F0080F04D0276A666AB74240F0DE808D4B00221A702846BDE8F0814668CA
:20200000D0F80880C7684CF25030FFF78DFF0546B8B9D6B9854AD36A23F07F1343EA0803CD
:2020200043EA0743D362814E736943F4003373614CF25030FFF778FF0546736923F400336F
:202040007361003D18BF0125C2E7012EEBD1774A136B23F07F1343EA080343EA07431363D5
:20206000E1E727694CF25030FFF75EFF08B10125B2E76E4E336A23F0FF033B433362736922
:2020800043F4003373614CF25030FFF74DFF736923F400337361002818BF01259CE7666991
:2020A000A7694CF25030FFF73FFF00287DD116F001031ABF07F4E0634FF4E0621A4616F09C
:2020C000020F04D007F480510B4342F4805216F0040F04D007F400510B4342F4005216F4E0
:2020E000805F04D007F480410B4342F4804216F0080F04D007F480310B4342F4803216F052
:20210000100F04D007F400310B4342F4003216F0200F04D007F480210B4342F4802216F019
:20212000400F04D007F400210B4342F4002216F4007F04D007F400010B4342F4000216F4D1
:20214000806F04D007F080710B4342F0807216F4006F04D007F000710B4342F0007216F4B1
:20216000005F04D007F080610B4342F0806216F4804F04D007F000673B4342F000622B4E5C
:20218000316A21EA020213433362736943F4003373614CF25030FFF7C7FE736923F40033F1
:2021A0007361002818BF01251AE7012518E7D4F81C804CF25030FFF7B7FE80BB18F0010FDC
:2021C00014D01A4A536A07F1784723F4FF4323F07F0343EAD7075762936A06F1784623F4C8
:2021E000FF4323F07F0343EAD60696620F4CA36A23F0004308F0004843EA0803A362636900
:2022000043F4003363614CF25030FFF78DFE636923F400336361002818BF0125E9E601255D
:20222000E7E60225E8E600BF0800002000200240062303604368012B08D9234B1B6ADBB2CF
:20224000AA2B1AD0CC2B18D0BB2319E0072202604BB91D4AD36A03F07F038360D36AC3F38B
:202260000643C360E9E7184A136B03F07F038360136BC3F30643C360DFE7134B1B6ADBB214
:202280000361114B1B6A23F0FF038361C369012B00D07047036843F0080303600A494A6A0E
:2022A0000A4B03EAC20202F1006202628A6A03EAC20303F10063073343628B6A03F0004358
:2022C00043F00103C361E4E700200240F8FF03000A68002A00F0D2802DE9F04F83B00023F3
:2022E00001274FF0030CDFF8A0E1654E48E04FEAD30900EB8909D9F8205003F0070B4FEA24
:202300008B0B4FF00F0A0AFA0BFA25EA0A0A0D6905FA0BF545EA0A05C9F8205065E0002555
:2023200005FA08F545EA0905A56034686FEA02084D6815F4803F0CBF08EA04041443346033
:2023400074684D6815F4003F0CBF08EA040414437460B4684D6815F4801F0CBF08EA040476
:202360001443B460F4684D6815F4001F0CBF08EA04041443F46001330A6832FA03F47AD036
:2023800007FA03F42240F6D04D6825F01005013D012D16D885684FEA43090CFA09F825EA5C
:2023A0000808CD6805FA09F545EA08058560456825EA04084D68C5F300149C4044EA08045B
:2023C0004460C5684FEA43080CFA08F96FEA090425EA09098D6805FA08F545EA0905C560C7
:2023E0004D6825F01005022D81D0056825404C6804F0030404FA08F42C4304604C6814F078
:20240000805FB8D0DEF8604044F00104CEF86040DEF8604004F001040194019C23F0030485
:2024200004F1804404F58034D4F8089003F003054FEA85080F2505FA08F529EA0509B0F11F
:20244000904F3FF46CAF0F4DA8420ED005F58065A8420CD005F58065A8420AD005F5806504
:20246000A8420CBF042507255AE73D4658E7022556E7654654E703B0BDE8F08F704700BFB8
:202480000004014000040048001002400369194214BF0120002070470AB181617047816290
:2024A000704743690B4214BF81628161704730B338B5044603684CF6CC421A60036845F22C
:2024C00055521A60036842685A60036882689A60FEF7ACFC05462368DA6832B1FEF7A6FC8E
:2024E000401B3028F7D9032008E01969E268914212BF1A614AF6AA221A60002038BD0120A7
:20250000704703684AF6AA221A600020704700001E4A536823F00E0301680B4353601C4B24
:202520005A6822F480325A601A6822F480321A60DA6822F48032DA609A6822F480329A608B
:20254000436813F4803F04D0114A136843F480331360436813F4003F04D00D4A536843F4F5
:2025600080335360436813F0010F04D0084A936843F480339360436813F0020F04D0044A58
:20258000D36843F48033D360002070470070004000040140024A536843F00103536070476F
:2025A00000700040024B186800F4C060704700BF00700040B0F5007F0FD0204B1B6803F47C
:2025C000C063B3F5806F36D01C4A136823F4C06343F48063136000207047184B1B6803F4DF
:2025E000C063B3F5007F24D0144A136823F4C06343F400731360124B1968322303FB01F348
:202600001049A1FB03139B0C0133526912F4806F07D00A49013B4A6912F4806F01D0002B1A
:20262000F8D1064B5B6913F4806F0CBF002003207047002070470020704700BF00700040E4
:202640006400002083DE1B4330B583B004461E4B9B6D13F0805F0CD0FFF7A4FFB0F5007FE9
:2026600018D0802C1FD82DD0702C14BF002401241AE0154DAB6D43F08053AB65AB6D03F085
:2026800080530193019BFFF78DFFAB6D23F08053AB65E3E7802C04D9A02C8CBF02240124F2
:2026A00002E0002400E0032408490B6823F0070323430B60086800F00700001B18BF0120E1
:2026C00003B030BD0224EFE70010024000200240254A9368D26813F00C030ED00C2B06D009
:2026E000042B3FD0082B214818BF0020704702F00302012A01D0002012E01B4A126812F06C
:20270000080F194A07BFD2F89420C2F303221268C2F30312164951F8220023B30C2B1FD116
:20272000114BDB6803F00303022B17D00F4A032B08BF10460C4BDA68D968C1F3062100FB99
:2027400001F0DB68C2F302120132B0FBF2F0C3F3416301335B00B0FBF3F070470548E9E771
:2027600000207047034870470010024000127A00749A00080024F400002800F02F832DE994
:20278000F04383B00446B04B9D6805F00C05DE6806F00306036813F0100F5FD0F5B10C2DA3
:2027A0001AD0A369002B00F0BA80A74A136843F001031360FEF73AFB0746DFF88C82D8F88C
:2027C000003013F0020F40F09780FEF72FFBC01B0228F4D903200CE3012EE2D19A4B1B6821
:2027E00013F0020F03D0A369002B00F0F982206A954B1B6813F0080F934B12BF1B68D3F84C
:2028000094301B0903F0F003984256D88E4B1A6842F008021A601A6822F0F002216A0A4373
:202820001A605A68E16922F47F4242EA01225A60002D5AD0FFF74CFF834B9B68C3F30313FD
:20284000824AD35C03F01F03D840814B1860814B1868FEF7A7FA002840F0CB82236813F0F7
:20286000010F7DD0082D72D00C2D6ED06368B3F5803F00F09480B3F5A02F00F09680724B9D
:202880001A6822F480321A601A6822F480221A606368002B00F09680FEF7C8FA0746DFF8E9
:2028A000A881D8F8003013F4003F59D1FEF7BEFAC01B6428F5D903209BE2FFF7C5FE00281C
:2028C00040F09082604B1A6842F008021A601A6822F0F002216A0A431A605A68E16922F4D9
:2028E0007F4242EA01225A60A4E7206AFFF7ACFE00289FD001207CE2534B1A6842F00802E7
:202900001A601A6822F0F002216A0A431A605A68E16922F47F4242EA01225A609EE74A4A60
:20292000136823F001031360FEF780FA0746DFF81881D8F8003013F0020F8FD0FEF776FA8E
:20294000C01B0228F5D9032053E2032E8ED13E4B1B6813F4003F03D06368002B00F04482EB
:20296000236813F0020F51D0042D3ED00C2D3AD0E368002B79D0344A136843F480731360C0
:20298000FEF754FA0646304F3B6813F4806F63D1FEF74CFA801B0228F6D9032029E22A4AEB
:2029A000136843F48033136072E703F18043A3F53C331A6842F480221A601A6842F48032EA
:2029C0001A6065E7FEF732FA0746DFF87C80D8F8003013F4003FC3D0FEF728FAC01B642899
:2029E000F5D9032005E2022EC2D1174B1B6813F4806F03D0E368002B00F0F881124A536898
:202A0000216923F0F85343EA01635360236813F0080F55D06369002B3BD00B4AD2F89430DB
:202A200043F00103C2F89430FEF700FA0646064FD7F8943013F0020F42D1FEF7F7F9801B17
:202A40000228F5D90320D4E1001002405C9A00086400002004000020B64A5368216923F056
:202A6000F85343EA01635360D0E7B24A136823F480731360FEF7DAF90646AE4F3B6813F461
:202A8000806FC3D0FEF7D2F9801B0228F6D90320AFE1A84AD2F8943023F00103C2F8943098
:202AA000FEF7C4F90646A34FD7F8943013F0020F06D0FEF7BBF9801B0228F5D9032098E1D1
:202AC000236813F0040F7ED09A4B9B6D13F0805F37D1984B9A6D42F080529A659B6D03F048
:202AE00080530193019B0126934B1B6813F4807F29D0A368012B3CD0052B42D08D4BD3F824
:202B0000902022F00102C3F89020D3F8902022F00402C3F89020A368002B40D0FEF786F9CD
:202B20000746DFF8108241F28839D8F8903013F0020F47D1FEF77AF9C01B4845F5D903206E
:202B400057E10026D0E77C4A136843F480731360FEF76CF90746DFF8E081D8F8003013F49C
:202B6000807FC6D1FEF762F9C01B0228F5D903203FE1704AD2F8903043F00103C2F8903064
:202B8000C9E76C4BD3F8902042F00402C3F89020D3F8902042F00102C3F89020BBE7FEF7FE
:202BA00045F90746DFF88C8141F28839D8F8903013F0020F06D0FEF739F9C01B4845F5D9DB
:202BC000032016E1E6B9236813F0200F35D0636AE3B1584AD2F8983043F00103C2F898302C
:202BE000FEF724F90646534FD7F8983013F0020F23D1FEF71BF9801B0228F5D90320F8E09F
:202C00004C4A936D23F080539365DCE7494AD2F8983023F00103C2F89830FEF707F906467E
:202C2000444FD7F8983013F0020F06D0FEF7FEF8801B0228F5D90320DBE0A36A002B00F0FC
:202C4000D780022B27D00C2D00F0D880394B1A6822F080721A601B6813F0006F04D1354AAB
:202C6000D36823F00303D360324AD36823F0887323F48033D360FEF7D9F804462D4D2B68EE
:202C800013F0007F00F0A880FEF7D0F8001B0228F5D90320ADE0274BDB6803F00301E26A22
:202CA000914209D00C2D00F0A780224B1B6813F0806F2BD001209CE003F07002216B013973
:202CC000B2EB011FEED103F4FE42616BB2EB012FE8D103F07842A16BB2EBC16FE2D103F4BF
:202CE000C001E26B5208013AB1EB425FDAD103F0C063226C5208013AB3EB426FD2D10D4BC6
:202D00001B6813F0007F4DD0002072E0094A136823F080731360FEF789F80546054E336829
:202D200013F0007F0AD0FEF781F8401B0228F6D903205EE00010024000700040304AD1685F
:202D4000304B0B40E16A0B43616B43EA0123A16B43EAC163216B013943EA0113E16B4908F6
:202D6000013943EA4153216C4908013943EA4163D360136843F080731360D36843F08073C7
:202D8000D360FEF753F804461D4D2B6813F0007F06D1FEF74BF8001B0228F6D9032028E0A9
:202DA000002026E0164B1A6842F080721A60DA6842F08072DA60FEF739F80446104D2B686C
:202DC00013F0007F06D1FEF731F8031B022BF6D903200EE000200CE000200AE00120704763
:202DE000012006E0012004E0012002E0012000E0002003B0BDE8F0830120FAE70120F8E7D6
:202E0000001002408C809D01002800F09A802DE9F0410C4605464F4B1B6803F007038B42B9
:202E20000BD24C4A136823F007030B431360136803F007038B4240F086802B6813F0010FA5
:202E400039D06A68032A09D0022A26D062BB424B1B6813F0020F06D1012070E03E4B1B68DA
:202E600013F0007F71D03C498B6823F0030313438B60FDF7DBFF0646374F41F28838BB6807
:202E800003F00C036A68B3EB820F14D0FDF7CEFF801B4045F3D9032051E02F4B1B6813F446
:202EA000003FE0D101204AE02B4B1B6813F4806FD9D1012043E02B6813F0020F06D0264A0D
:202EC000936823F0F003A9680B439360214B1B6803F00703A3420AD91E4A136823F00703EB
:202EE00023431360136803F00703A3422FD12B6813F0040F06D0184A936823F4E063E96815
:202F00000B4393602B6813F0080F07D0124A9368296923F4605343EAC1039360FFF7D8FB8C
:202F20000D4B9B68C3F303130C4AD35C03F01F03D8400B4B18600B4B1868FDF733FFBDE849
:202F4000F081012070470120F9E70120F7E70120F5E700BF00200240001002405C9A0008BA
:202F60006400002004000020054B9B68C3F30223044AD35C03F01F03034A1068D840704755
:202F8000001002406C9A000864000020054B9B68C3F3C223044AD35C03F01F03034A106808
:202FA000D8407047001002406C9A000864000020F8B504460E46544BDB6813F0030F14D038
:202FC000514BDB68026803F00303934201D0012013E0002A79D04C4BDB68C3F302130133A9
:202FE0004268934219D0012007E00368022B28D0032B2DD0012B01D00120F8BD424A1268CD
:2030000012F0020F63D04048C2686168013922F07302134343EA0113C3603B4A136823F061
:2030200080631360FDF702FF0546374F3B6813F0006F55D0FDF7FAFE431B022BF6D90320D1
:20304000DBE7314A126812F4806FDCD10120D4E72D4A126812F4003FD5D12B4A126812F46A
:20306000802FD0D10120C8E727490A69A068E368DB0643EA002322F0784222F4FE42134351
:203080000B61214A136843F080631360FDF7CEFE05461D4E336813F0006F1AD1FDF7C6FE2F
:2030A000431B022BF6D90320A7E717490B6922695208013AA06823F4C00323F4FE4343EAAA
:2030C000002343EA42530B61DBE7012095E7012093E70D4A1369A1690B43136100208CE773
:2030E000002EC1D0012EE0D00748026963695B08591EA56822F0C06323F4FE4343EA0523E3
:2031000043EA41630361BCE7001002402DE9F04383B00446036813F4006F20D0436CB3F597
:20312000000F05D0B3F5400F07D08BB1012617E0B64AD36843F48033D360B44AD2F88830AB
:2031400023F44003616C0B43C2F88830002607E000210430FFF72CFF064608B9EDE70026FE
:20316000236813F4003F29D0A84B9B6D13F0805F40F0E380A54B9A6D42F080529A659B6D13
:2031800003F080530193019B0127A14A136843F480731360FDF74AFE0546DFF87482D8F8EA
:2031A000003013F4807F40F0CA80FDF73FFE401B0228F4D90326002F40F0F680236813F050
:2031C000010F08D0914AD2F8883023F00303216A0B43C2F88830236813F0020F08D08B4AFA
:2031E000D2F8883023F00C03616A0B43C2F88830236813F0040F08D0844AD2F8883023F0C4
:203200003003A16A0B43C2F88830236813F0200F08D07E4AD2F8883023F44063E16A0B437E
:20322000C2F88830236813F4007F08D0774AD2F8883023F44023E16B0B43C2F888302368DF
:2032400013F4806F08D0714AD2F8883023F44013216C0B43C2F88830236813F0400F08D0F7
:203260006A4AD2F8883023F44053216B0B43C2F88830236813F0800F08D0644AD2F88830FD
:2032800023F44043616B0B43C2F88830236813F4807F08D05D4AD2F8883023F44033A16BE0
:2032A0000B43C2F88830236813F4002F0FD0574AD2F8883023F04063A16C0B43C2F8883008
:2032C000A36CB3F1006F75D0B3F1806F77D0236813F4802F0FD04D4AD2F8883023F04063BE
:2032E000E16C0B43C2F88830E36CB3F1006F6ED0B3F1806F70D0236813F4804F0CD0434A84
:20330000D2F8883023F04053216D0B43C2F88830236DB3F1805F67D0236813F4004F08D034
:203320003A4AD2F8883023F08043616D0B43C2F88830304603B0BDE8F083002725E7002E81
:203340007FF439AF314BD3F8903013F4407353D0A26D9A4212D02D4AD2F8903023F4407396
:20336000D2F8901041F48031C2F89010D2F8901021F48031C2F89010C2F8903013F0010F8C
:203380003AD0FDF753FD0546DFF8808041F28839D8F8903013F0020F2ED1FDF747FD401B93
:2033A0004845F5D9032606E7184A936D23F08053936503E7D36843F48013D36087E70121AA
:2033C000201DFFF7F5FD002818BF06467FE7D36843F48013D3608EE70121201DFFF7E8FD30
:2033E000002818BF064686E70221201DFFF7E0FD002818BF06468FE7044AD2F8903023F432
:203400004073A16D0B43C2F89030D4E600100240007000402DE9F04180460E4615461F4646
:20342000D8F800309C6836EA04020CBF01240024AC423CD0B7F1FF3FF4D0FDF7F7FC069B22
:20344000C01AB842ECD3D8F80020536823F0E0035360D8F80430B3F5827F0CD0D8F82830D4
:20346000B3F5005F16D0012388F85D30002388F85C3003201CE0D8F80830B3F5004F02D00F
:20348000B3F5806FEAD1D8F80020136823F040031360E3E7D8F80020136823F40053136094
:2034A000D8F80020136843F400531360DBE70020BDE8F0812DE9F04180460D4616461F468B
:2034C000D8F8002002E0B7F1FF3F0AD194682C40B44240D0B5F5C06FF5D1002EF3D1137BCC
:2034E000F1E7FDF7A3FC069BC01AB842E8D3D8F80020536823F0E0035360D8F80430B3F531
:20350000827F0CD0D8F82830B3F5005F16D0012388F85D30002388F85C3003201CE0D8F86A
:203520000830B3F5004F02D0B3F5806FEAD1D8F80020136823F040031360E3E7D8F800204A
:20354000136823F400531360D8F80020136843F400531360DBE70020BDE8F08170B582B05C
:2035600004460D46164600920B4600224FF4C051FFF7A0FFB0B900962B46002280212046CB
:20358000FFF748FFA8B900962B4600224FF4C0612046FFF78FFF50B1236E43F020032366A5
:2035A000032004E0236E43F020032366032002B070BD236E43F0200323660320F7E770B5FC
:2035C00082B004460D4616464368B3F5827F0DD000962B46002280212046FFF71BFF90B906
:2035E0006368B3F5827F14D002B070BD8368B3F5004F02D0B3F5806FEAD12268136823F076
:2036000040031360E4E7236E43F0200323660320EAE7A368B3F5004F02D0B3F5806FE3D1A6
:2036200000962B4600224FF4C0612046FFF742FF0028D9D0236E43F0200323660320D3E742
:2036400000284CD010B504460023836290F85D30C3B1022384F85D302268136823F04003FD
:203660001360E368B3F5E06F41D8B3F5E06F38D00023A362236B002B48D1012323634FF496
:20368000805107E080F85C3004F0F4FBE1E702232363002122686368A06803432069034385
:2036A00060690343E0690343206A0343A06A0343A06900F40070034313602268636A606B04
:2036C0000343E0680343608B00F0040003430B43536000202066012384F85D3010BD01202F
:2036E0007047236B002BC8D04FF48051D2E7B3F5706F04D1236B002BC9D00021CAE7002352
:20370000A362236B002BC2D00021C3E74FF48051C0E70000034690F85C00012846D0012046
:2037200083F85C00002936D0002A36D093F85D00C0B2012836D1032083F85D000020186630
:2037400099639A87DA871864A3F84400A3F84600D864D868164A1749B0F5E06F98BF0A46D8
:203760001A659A68B2F5004F0FD019684A6842F0A0024A601A68116811F0400F14D1116899
:2037800041F040011160002008E019680A6842F480420A60E9E7012000E00120002283F85A
:2037A0005C2070470220F9E70020F7E702207047EF390008C939000830B4044690F85C00B1
:2037C000012863D0012084F85C0094F85D00C0B2012808D06568B5F5827F45D1A568002D70
:2037E00048D1042848D1002948D0002A48D0002B48D094F85D00C0B204281CBF052084F8A2
:203800005D0000202066A163A387E3872264A4F84430A4F84630E268B2F5E06F18D91C4BCD
:20382000E3641C4B23652268536823F4805353602268536843F0E003536023681A6812F053
:20384000400F21D11A6842F040021A6000200CE0114AE264114A2265012BE4D822685368FB
:2038600043F480535360E3E70220002384F85C3030BC70470220F8E70220F6E70120F4E7D5
:203880000120F2E70120F0E70020EEE70220EFE7113C0008D93B0008633B00080B3B0008E4
:2038A00010B5044683681BB94368B3F5827F3CD094F85C30012B55D0012384F85C3094F8B9
:2038C0005D00C0B2984246D1002945D0002A43D0042384F85D30002323662164A4F844204C
:2038E000A4F84620A363A387E3872365E368B3F5E06F22D92268536823F4805353601A4B20
:20390000E364A368B3F5004F1FD02268536843F06003536023681A6812F0400F20D11A6810
:2039200042F040021A60002016E0042380F85D3013460A46FFF740FF11E02268536843F40C
:2039400080535360094BE364DBE72268136823F480431360D9E70220002384F85C3010BD58
:203960000020F9E70220FAE7813A0008553A0008704710B582B00446FDF758FA02462168DB
:203980004B6823F0A0034B6064212046FFF7E6FD18B1236E43F020032366A36833B901938B
:2039A0002368DA6801929B680193019B012384F85D30236E23B12046FFF7DAFF02B010BD2E
:2039C000204603F06FFDF9E708B50368826B12781A73836B01338363C38F013B9BB2C387E9
:2039E000C38F9BB203B108BDFFF7C3FFFBE708B50368826B1288DA60836B02338363C38FD1
:203A0000013B9BB2C387C38F9BB203B108BDFFF7B0FFFBE710B504460268536823F060038A
:203A20005360FDF703FA024664212046FFF7C7FD18B1236E43F020032366012384F85D308F
:203A4000236E1BB9204603F039FD10BD2046FFF78FFFFAE708B50268036C127B1A70036CBE
:203A600001330364B0F84630013B9BB2A0F84630B0F846309BB203B108BDFFF7CBFFFBE770
:203A800008B50368DA68036C1A80036C02330364B0F84630013B9BB2A0F84630B0F84630D5
:203AA0009BB203B108BDFFF7B5FFFBE710B50446FDF7BCF9024621684B6823F020034B6097
:203AC00064212046FFF74AFD18B1236E43F020032366236E93B994F85D30DBB2042B06D0FD
:203AE000012384F85D30204603F0F4FC10BD012384F85D30204603F0E1FCF7E7012384F8A2
:203B00005D302046FFF734FFF0E708B5C38F9BB2012B17D90368826B1288DA60836B0233EB
:203B20008363C38F023B9BB2C387C38F9BB243B90268536823F080035360B0F846309BB205
:203B400063B108BD0368826B12781A73836B01338363C38F013B9BB2C387E6E7FFF7A6FF88
:203B6000EFE708B5B0F846309BB2012B17D90368DA68036C1A80036C02330364B0F846304C
:203B8000023B9BB2A0F84630B0F846309BB2012B12D10268536843F4805353600CE00268DB
:203BA000036C127B1A70036C01330364B0F84630013B9BB2A0F84630B0F846309BB23BB961
:203BC0000268536823F060035360C38F9BB203B108BDFFF76BFFFBE708B50368826B12888E
:203BE000DA60836B02338363C38F013B9BB2C387C38F9BB243B90268536823F08003536054
:203C0000B0F846309BB203B108BDFFF74FFFFBE708B50368DA68036C1A80036C023303641C
:203C2000B0F84630013B9BB2A0F84630B0F846309BB23BB90268536823F040035360C38FF0
:203C40009BB203B108BDFFF731FFFBE7F0B585B00446016848688B689A09C3F3801613F074
:203C6000400F05D113F0010F02D010F0400F69D113F0020F02D010F0800F67D15F09C3F3E6
:203C8000002542EA531303F001032B4361D010F0200F5ED07EB194F85D30DBB2032B5AD04D
:203CA000236E43F00403236600230093CB6800938B680093009B17F0010F0CD0236E43F05C
:203CC00001032366002302938B6802930B6823F040030B60029B4DB1236E43F008032366F0
:203CE0000023039323689B680393039B236E002B2FD02268536823F0E0035360012384F800
:203D00005D3010F0030F2ED02268536823F003035360A36D4BB1164A9A63A06DFEF73DF855
:203D200018B1236E43F040032366636D8BB1104A9A63606DFEF731F858B1236E43F04003CC
:203D4000236606E0E36C2046984702E0236D2046984705B0F0BD00230193CB6801938B68D6
:203D60000193019BF5E72046FFF702FEF1E700BF753D000808B5806A0023A0F84630C38768
:203D8000FFF7F6FD08BD000070B4036A23F001030362036A4468826922F4803222F0730215
:203DA0000D682A4323F002038D682B43154DA84215D005F5A055A8420AD005F58065A842F9
:203DC00019D123F00803CD682B4323F004030CE023F00803CD682B4323F0040305E023F05F
:203DE0000803CD682B4323F0040324F440744D698E6935432C43446082614A684263036258
:203E000070BC7047002C014070B4036A23F480730362036A4468C26922F4803222F07302BF
:203E20000D682A4323F400738D6843EA05230F4DA84206D00E4DA8420AD00E4DA8420ED16D
:203E400006E023F40063CD6843EA052323F4806324F440544D698E69354344EA05144460C2
:203E6000C2614A68C263036270BC7047002C0140004001400044014030B4036A23F4805352
:203E80000362026A4468C36923F0807323F4E6430D6843EA052322F400528D6842EA0532A9
:203EA0000B4DA84207D005F5A055A84203D005F58065A84204D124F480444D6944EA851446
:203EC0004460C3614B680364026230BC704700BF002C014030B4036A23F480330362026AE1
:203EE0004468436D23F4803323F070030D682B4322F400328D6842EA05420B4DA84207D06A
:203F000005F5A055A84203D005F58065A84204D124F480344D6944EA0524446043654B687F
:203F20008365026230BC7047002C014030B4036A23F480130362026A4468436D23F08073F7
:203F400023F4E0430D6843EA052322F400128D6842EA05520B4DA84207D005F5A055A842CB
:203F600003D005F58065A84204D124F480244D6944EA8524446043654B68C365026230BC10
:203F8000704700BF002C0140022380F83D3002689168084B0B40062B06D0B3F5803F03D0F2
:203FA000136843F001031360012380F83D300020704700BF07000100022380F83D300368C0
:203FC000196A41F21112114208D1196A40F24442114203D11A6822F001021A60012380F8CD
:203FE0003D300020704770477047000003682E4A904242D0B0F1804F2DD002F5A052904220
:204000001BD002F58062904209D023F080034A69134303608B68C3620B68836240E023F488
:204020004073CA68134323F080034A69134303608B68C3620B68836230E023F44073CA68C7
:20404000134323F080034A69134303608B68C3620B68836222E023F070034A68134323F4F1
:204060004073CA68134323F080034A69134303608B68C3620B68836212E023F070034A6869
:20408000134323F44073CA68134323F080034A69134303608B68C3620B6883620B6903632C
:2040A00001234361704700BF002C0140B0B110B5044690F83D3063B1022384F83D30214667
:2040C00051F8040BFFF792FF012384F83D30002010BD80F83C3003F009FFEDE7012070477C
:2040E000B0B110B5044690F83D3063B1022384F83D30214651F8040BFFF778FF012384F86D
:204100003D30002010BD80F83C30FFF76CFFEDE70120704700B338B50D46044690F83D3022
:20412000ABB1022384F83D30214651F8040BFFF75DFF2268136823F0080313602368196862
:204140000D431D60012384F83D30002038BD80F83C30FFF749FFE4E70120704770B4036A1A
:2041600023F010030362036A4468826922F0807222F4E6420D6842EA052223F020038D687B
:2041800043EA05130F4DA84206D00F4DA8420AD00E4DA8420ED106E023F08003CD6843EA9C
:2041A000051323F0400324F440644D698E69354344EA8504446082614A688263036270BC4A
:2041C000704700BF002C0140004001400044014090F83C30012B34D010B50446012380F827
:2041E0003C30022380F83D30142A0FD8DFE802F00B0E0E0E150E0E0E190E0E0E1D0E0E0E6D
:20420000210E0E0E25000068FFF7BEFD012384F83D30002084F83C0010BD0068FFF79EFF68
:20422000F4E70068FFF7F0FDF0E70068FFF724FEECE70068FFF74EFEE8E70068FFF776FEE3
:20424000E4E70220704710B4846824F47F440A4342EA0322224382605DF8044B70470000EF
:2042600090F83C30012B00F09A8070B50446012380F83C30022380F83D3002689068494B9D
:20428000034093600B68602B54D036D8402B6CD01BD9502B2AD123684868CE68196A1D6A2C
:2042A00025F001051D629A6922F0F00242EA061221F00A0101439A6119622268936823F0AB
:2042C000700343F05703936010E0202B02D00AD9302B0BD121688A6822F07002134343F03C
:2042E00007038B6002E033F01002F3D0012384F83D30002084F83C0070BD702B0ED0B3F5BC
:20430000005FF3D1CB684A6889682068FFF79BFF2268936843F480439360E7E7CB684A6867
:2043200089682068FFF78FFF2268936843F077039360DBE723684D68CE68186A20F0100081
:20434000186299691A6A21F4704141EA063122F0A00242EA051299611A622268936823F030
:20436000700343F067039360C0E723684868CE68196A1D6A25F001051D629A6922F0F00277
:2043800042EA061221F00A0101439A6119622268936823F0700343F047039360A6E70220D9
:2043A000704700BF8800FEFF90F83C30012B2FD030B4012380F83C30022380F83D30026883
:2043C00053689468134DAA421DD023F070030D682B43536003680F4A934206D0B3F1804FEF
:2043E00003D002F5A052934204D124F080048A6814439C60012380F83D30002380F83C306A
:20440000184630BC704723F470034D682B43DCE702207047002C01400268136823F49073E6
:2044200013600268936823F00103936020238367002303667047436F212B00D07047B0F8FD
:2044400052309BB253B90268136823F0800313600268136843F04003136070470368C26C75
:2044600012781A85C36C0133C364B0F85230013B9BB2A0F85230E1E7436F212B00D070476F
:20448000B0F852309BB253B90268136823F0800313600268136843F04003136070470268BC
:2044A000C36C1B88C3F308031385C36C0233C364B0F85230013B9BB2A0F85230DFE70000B3
:2044C000436F202B25D131B33AB390F87030012B25D0C164A0F85020A0F852200023C3674B
:2044E000212343678368B3F5805F0BD00D4B4366002380F8703001680A6842F080020A604C
:20450000184670470169074B074A002908BF1346EDE70220704701207047012070470220B1
:20452000704700BF374400087944000870B504460268D3691168956840F60F0003420AD1CD
:2045400013F0200F0DD011F0200F0AD0236EEBB1204698471AE005F0010001F4907606439C
:2045600015D113F4801F03D015F4800F40F08F8013F0800F03D011F0800F40F08F8013F0CE
:20458000400F03D011F0400F40F08F8070BD13F0010F07D011F4807F04D001251562E26F8D
:2045A0002A43E26713F0020F0ED0C0B1226802251562E26F42F00402E26713F0040F07D1FA
:2045C00013F0080F12D117E013F0040F07D030B1226804251562E26F42F00202E26713F01C
:2045E000080F09D001F02002024305D0226808201062E26F0243E26713F4006F0AD011F04A
:20460000806F07D022684FF400601062E26F42F02002E267E26F002AB8D013F0200F06D03C
:2046200011F0200F03D0236E0BB120469847E36F2268926802F0400203F02803134320D077
:204640002046FFF7E9FE23689A6812F0400F14D09A6822F040029A60E36E53B1194A9A6350
:20466000E06EFDF79AFB002890D0E06E836B98478CE7204602F0D2FF88E7204602F0CEFF90
:2046800084E7204602F0CAFF0023E3677EE74FF480131362204600F094FB77E7636E002B32
:2046A0003FF474AF2046984770E7136823F0400313602023636700236366204602F030F94A
:2046C00064E700BFC946000808B5806A0023A0F85A30A0F8523002F0A1FF08BDF8B5044665
:2046E00001680868A3682269134362691343E2691343A94A024013430B602268536823F4E1
:204700004053E1680B435360A1692268A34B9A421CBF236A1943936823F430630B439360B4
:2047200023689F4A93421CD09E4A93422BD09E4A934245D0994A934258D01025E369B3F5B1
:20474000004F00F0F180082D00F28C81DFE815F04D0162016C018A0177018A018A018A01E7
:20476000810102F55842D2F8882002F00302032A07D8DFE812F06B00040086018801042540
:20478000DCE71025DAE702F5E632D2F8882002F00C020C2A12D8DFE812F07700110011005D
:2047A00011000D0011001100110078011100110011000F000425C1E70825BFE71025BDE770
:2047C0007A4BD3F8883003F03003202B00F05F8107D8002B00F0A680102B14BF10250425C4
:2047E000ACE7302B14BF10250825A7E76F4BD3F8883003F44063B3F5006F51D00BD8002BEB
:2048000047D0B3F5806F18BF012540F0FE80FDF75FFF042540E0B3F5406F15D108254FF4F7
:204820000040626802EB4203834200F22081B0EB023F00F21E81082D71D8DFE805F0377096
:204840004C705770707065000125DEE00125534A93427FF473AF082D00F2078101A353F8E1
:2048600025F000BF934800086B4A0008A74800086B4A00080F4800086B4A00086B4A000837
:204880006B4A00088D4800080025E0E74FF40040C7E7FEF769FB00250028C2D10025B4E06F
:2048A00002254348BDE702254148BAE7FEF75CFB62680023070E06025008301847F1000122
:2048C000FCF7F4F8A0F540723A4B9A4200F2D3802368D86099E0560800252B46364800213D
:2048E000801941F10001FCF7E1F8EBE7FDF7F0FE62680025070E060250082B46301847F117
:204900000001FCF7D3F8DDE7500800252B4610F500002CBF01210021FCF7C8F8D2E7012561
:204920000020CFE7002509E7082D5BD8DFE805F0051D285A465A5A5A5100FEF715FB626850
:20494000530803EB4003B3FBF2F39BB2A3F110014FF6EF72914200F2908023F00F0221681E
:20496000C3F342031343CB604FE0FEF70FFB6268530803EB4003B3FBF2F39BB20025E5E766
:204980006268530803F1F47303F59043B3FBF2F39BB20025DAE700BFF369FFEF008000403D
:2049A000003801400044004000480040001002400024F400FFFC0F00000024F4FDF788FE6C
:2049C0006268530803EB4003B3FBF2F39BB20025BCE76268530803F58033B3FBF2F39BB229
:2049E0000025B3E701250023B0E7FEF7BDFA626800EB5203B3FBF2F39BB2A3F110014FF698
:204A0000EF7291423BD82268D3600023236663662846F8BDFEF7BAFA626800EB5203B3FB99
:204A2000F2F39BB20025E8E76268530803F5740303F51053B3FBF2F39BB20025DDE7FDF7A4
:204A400047FE626800EB5203B3FBF2F39BB20025D3E76268530803F50043B3FBF2F39BB208
:204A60000025CAE701250023C7E70125CDE70125CBE70125C9E70125C7E70125C5E7012515
:204A8000C3E702255AE6082558E6022556E6022554E600BF436A13F0010F06D0026853685C
:204AA00023F40033816A0B435360436A13F0020F06D00268536823F48033C16A0B4353600E
:204AC000436A13F0040F06D00268536823F48023016B0B435360436A13F0080F06D00268EA
:204AE000536823F40043416B0B435360436A13F0100F06D00268936823F48053816B0B43C6
:204B00009360436A13F0200F06D00268936823F40053C16B0B439360436A13F0400F0AD0D8
:204B20000268536823F48013016C0B435360036CB3F5801F0BD0436A13F0800F06D0026828
:204B4000536823F40023816C0B43536070470268536823F4C003416C0B435360EBE72DE926
:204B6000F84380460E4615469946089FD8F80020D46936EA04030CBF01240024AC4244D194
:204B8000B7F1FF3FF4D0FCF751F9A0EB0900B84225D827B3D8F800301A6812F0040FE5D07D
:204BA000DA6912F4006FE1D04FF400621A62D8F80020136823F4D0731360D8F80020936848
:204BC00023F0010393602023C8F87430C8F87830C8F87C30002388F87030032016E0D8F824
:204BE0000020136823F4D0731360D8F80020936823F0010393602023C8F87430C8F8783049
:204C0000002388F87030032000E00020BDE8F8832DE9F04782B01E46436F202B5CD10446B7
:204C20000D46904600295BD0002A5BD090F87030012B59D0012380F870300023C367212358
:204C40004367FCF7F3F80746A4F85080A4F85280A368B3F5805F0DD04FF0000A002384F84E
:204C60007030B4F852309BB25BB34FF000094FF0800817E0236913B9AA460025EEE74FF084
:204C8000000AEBE722683AF8023BC3F308031385B4F85220013A92B2A4F85220B4F852300D
:204CA0009BB273B100963B464A4641462046FFF756FFD8B9002DE5D0236815F8012B1A85CE
:204CC000E6E700963B46002240212046FFF747FF70B92023636700E0022002B0BDE8F087C5
:204CE0000120FAE70120F8E70220F6E70320F4E70320F2E730B583B004460023C367FCF717
:204D000095F8054623681B6813F0080F0CD123681B6813F0040F15D120236367A367002075
:204D200084F8700003B030BD6FF07E430093034600224FF400112046FFF711FF0028E6D02B
:204D40000320EFE76FF07E4300932B4600224FF480012046FFF703FF0028DDD00320E1E732
:204D600068B310B50446436F03B3242363672268136823F0010313602046FFF7AFFC0128D1
:204D800013D0636ABBB92268536823F4904353602268936823F02A0393602268136843F01D
:204DA000010313602046FFF7A5FF10BD80F8703003F0B0F8D9E72046FFF76CFEE3E701208B
:204DC00070477047000000002DE9F843C24B1A68C24B1B689A4206D8C14B1B78002B00F081
:204DE0000681BDE8F883BC4B1B68FA33BB4A1360BC48FCF747FC002840F0EA800A22022192
:204E0000B848FCF7FDF8002840F0E580B64B1B78012BE1D1B54EB6F806801FFA88F8B44FA8
:204E20003B8840F6B83000FB03F0FBF76BFB04460D464046FBF776FB02460B462046294657
:204E4000FBF704FDFBF712FE80B2AA4B1880B6F800801FFA88F8FBF765FB04460D46404662
:204E6000FBF750FB22462B46FBF7C6FB92A3D3E90023FBF7EBFC92A3D3E90023FBF7BCFBBF
:204E800000229D4BFBF7E2FCFBF7F0FD9B4B1880708880B2FBF736FB22462B46FBF7ACFB1C
:204EA00085A3D3E90023FBF7D1FC87A3D3E90023FBF7A2FB86A3D3E90023FBF7C7FCFBF7E5
:204EC000D5FD8F4B1880B6F804901FFA89F9B6F806801FFA88F83888FBF714FB06460F4682
:204EE0004846FBF70FFB02460B4630463946FBF783FB06460F464046FBF714FB02460B4669
:204F000030463946FBF7A2FC06460F46DFF81482B8F80000FBF7F6FA02460B4630463946DE
:204F2000FBF7B2F90022774BFBF766FB06460F46754B1888B8F80030C01AFBF7F3FA0246BB
:204F40000B4630463946FBF781FC06460F466F4BC3E900676E4B188800283FD0FBF7E2FAD0
:204F600000226C4BFBF748FB8046894600226A4B30463946FBF78AF90022684BFBF73CFB4F
:204F800002460B4640464946FBF780F9FBF746FD80B25F4B1880554BD88880B2FBF7B2FA7F
:204FA00022462B46FBF728FB43A3D3E90023FBF74DFCFBF75BFD5A4B18804B4B00221A703A
:204FC000474B1B780BB1013BDBB2454A137003E702F070FB12E702F06DFB17E700224E4BC2
:204FE0003046FBF753F9FBF741FD80B2D1E7022001F072F8002831D1404B1B88A3F5A8438B
:20500000603B9BB2B3F5965F23D8012001F064F8002837D13A4B1B88A3F63F439BB2B3F53A
:20502000A57F2AD8052001F057F800283BD1384B1B883C2B32D8364BB3F9001011F1190FB3
:2050400072DB3C29D4BF00210121052001F03CF8C7E60121022001F037F8D6E7274B1B889B
:20506000A3F5AC43553B9BB240F6D6629342CCD80021022001F028F8C7E70121084601F082
:2050800023F8CFE71E4B1B88A3F681439BB2C62BC8D80021012001F017F8C3E701210520C5
:2050A00001F012F8C7E71A4B1B88362BC3D80021052001F009F8BEE70000000000FEAF4079
:2050C0000000000000AFC44000000000006AD84000000000004CCD40E4050020F800002021
:2050E00028000020A4060020FC000020D0070020AA75FF1FF200002000708240EC000020FE
:20510000EE00002000005440CA75FF1FE8050020F00000200000E83F00003E400000D03FBF
:20512000F4000020A875FF1F01218EE7034B1B7813B9034B18887047002070472800002018
:20514000EC000020034B1B7813B9034B188870470020704728000020EE000020034B1B78E3
:2051600013B9034B188870470020704728000020F0000020024B1878B0FA80F04009704798
:2051800028000020014B01221A707047FC000020704708B502F08EFA08BD8268C3689A4257
:2051A0002FBFD01A40688018C01A704710B54468FFF7F3FF013C201A10BD38B583685D1C58
:2051C0008288AA4298BF0025C268AA420AD0044629B10269006803FB020003F00BF8A5607B
:2051E000012038BD0020FCE738B50446C5688368AB420FD0084629B12269216805FB02112C
:2052000002F0F8FF01356268AA4298BF0025E560012038BD0020FCE710B503460846DC683F
:205220009A68A24208D071B11A69196804FB021102F0E0FF012010BD39B11A69002102F039
:20524000E7FF0020F7E70120F5E70020F3E720B129B1C3680B600120704700207047002063
:205260007047024698B199B10B688068984211D010B41069146800FB034001335468B3FBF1
:20528000F4F204FB12330B605DF8044B70477047084670470020704791B170B40C4604448B
:2052A000FF210A46084E094D10F8013B5340F25C4A40E95C8442F7D142EA012070BC704720
:2052C000FF2141EA012070475C9300085C940008836F222B06D00268138B9BB243F0080314
:2052E0001383704700B583B003689B8C90F85C2013408DF807300DF107010348FFF75DFF31
:2053000003B05DF804FB00BF2C000020014B00221A707047800100202DE9F04F83B0064657
:205320008A4614464FF0FF330193DFF89480DFF894B01CE0002389F80030384603B0BDE892
:20534000F08F52460021304602F062FF1B2333700023737001232360EFE770552368013364
:205360002360C0B202F074FF019B002B1ADB256806EB050901A94046FFF736FF07460028BB
:20538000DBD001980D28D5D00A28D3D01B28D8D0082809D07F2807D00AF1FF3322689A4215
:2053A000E2D2DAE70027C8E72368002BDFD0013B23600022F254584602F032FFD4E700BFDB
:2053C0002C0000205C95000808B580220021034802F01EFF024B00221A6008BD00010020DF
:2053E00084010020836F202B49D190F87030012B47D0012380F870308368B3F5805F06D0C2
:20540000A3B9036973B9FF23A0F85C3014E0036923B940F2FF13A0F85C300DE0FF23A0F807
:205420005C3009E07F23A0F85C3005E0B3F1805F1BD00023A0F85C300023C367222282671D
:2054400001688A6842F480528A6001688A6842F001028A600C4A026680F8703001680A68D4
:2054600042F490720A601846704703691BB97F23A0F85C30E0E73F23A0F85C30DCE702203D
:2054800070470220704700BFD152000808B50348FFF7A8FFB0FA80F0400908BDF0050020B0
:2054A0002DE9F04F87B09D4B1B784BB19C4B1B78012B3CD0022B21D0E3B107B0BDE8F08FAA
:2054C0009848FFF773FE80B9954B1B78012B2ED0022B13D0002BF0D1904B1B7853B9002217
:2054E00004219148FCF7D8FFE7E7FFF7CFFF8B4B1870E9E78A4B01221A70F0E78B4C256867
:2055000001F0DEF82146FFF7ACFE002869D002784378002B14BF43232D238178002914BF7E
:205520004D212D2100912946814802F079FE814C224680218048FFF7EFFE2368002BBCD0BA
:205540007D4B1C78FFF740FFA4F13103452B00F21781DFE813F0D400D400D400D400D40009
:20556000D400D400D400D400150115011501150115011501150115011501150115011501D3
:205580001501150115011501150115011501C0001501150115011501550074004A00150130
:2055A00058001501150115011501CB001501CF00150115011501DB00DB00DB00DB00DB0002
:2055C000DB00DB0015011501150115011501C0001501150115011501550074004A00150166
:2055E00058004F4B01221A70A1E7002204214E48FCF752FF01F0D8F8504802F011FE5CE7C6
:2056000001F01AFEF8E74E4802F00AFE4D4802F007FE4D4802F004FE4C4802F001FE4C4BE1
:205620001B8800934B4B1B884B4A12884B4909884B4802F0F5FD4B4802F0F2FDDCE7404871
:2056400002F0EEFD484802F0EBFD484802F0E8FD474802F0E5FD474C01212046FCF716FF16
:20566000054602212046FCF711FF064604212046FCF70CFF07464FF400612046FCF706FF2F
:2056800080464FF480512046FCF700FF81464FF400512046FCF7FAFE82464FF480412046FA
:2056A000FCF7F4FE83464FF400412046FCF7EEFE0490CDF80CB0CDF808A0CDF80490CDF8D3
:2056C00000803B46324629462B4802F0A9FD2B4802F0A6FD90E700F0F3FF1449FFF7B7FD6F
:2056E000002889D00E4B02221A7085E7002001F0FDFC81E74FF6FF7001F0F8FC7CE7313CDB
:205700000120A04080B201F0F1FC75E7583C0120A04080B201F0EAFC6EE700BF80010020C9
:20572000810100202C000020000C004898010020609500088401002000010020549A0008B5
:205740009C9900087C9500080896000844960008F0000020F4000020EE000020EC0000202D
:20576000D09600080897000894970008FC97000834980008000400489C980008DC9800086E
:205780000A4802F04DFD0A4802F04AFD094802F047FD094802F044FD084802F041FD084815
:2057A00002F03EFD074802F03BFD25E744990008589900086C99000890990008A0990008DA
:2057C000B0990008D099000808B501F0DBFEC043C3B200F007021549895C154A117010F0EC
:2057E000800F0EBF4FF41651114A4FF49641518003F06002402A0E4A14BF0121022151716C
:205800000B4A0821917113F0200F03D1134600221A7109E013F0400F054B0CBF012202225F
:205820001A71034B09229A7108BD00BF40000020B001002008B5214B1B68214A92689B1ADE
:205840004EF66022934202D91D4B0022DA711B4B1B681C4A92689B1A4EF66022934202D989
:20586000184B00229A73174B1B7B3BB1134B1B68144A12689B1AB3F57A7F0BD8114B5B7B8E
:205880003BB10E4B1B680F4A52689B1AB3F57A7F0DD808BDBFF34F8F0B49CA6802F4E062DF
:2058A0000A4B1343CB60BFF34F8F00BFFDE700F073FB044B00225A73EBE700BFE4050020A9
:2058C000B00100209C01002000ED00E00400FA05014B1878704700BFB0010020014B58881B
:2058E000704700BFB0010020034B5888B0F5964F14BF002001207047B0010020014B187930
:20590000704700BFB0010020014B5879704700BFB0010020014B9879704700BFB001002038
:20592000044B1B79002B14BF0A200920014B5B7918447047B001002008B500F0F1FA08BDD2
:2059400008B5064BDB790BB9022008BD044B1A68024B9A6000F0F0FA0020F6E7B00100207A
:20596000E405002008B500F0F9FA08BD08B5064BDB790BB9022008BD044B1A68024B9A6094
:2059800000F0F8FA0020F6E7B0010020E4050020014BD879704700BFB0010020064B40F2E7
:2059A000D242904214BF00200120D871034A12689A600020704700BFB0010020E405002073
:2059C000012809D8054B003818BF01209873044A12689A6000207047032070479C01002002
:2059E000E4050020014B987B704700BF9C010020012810D810B50446084B9B7B0BB903209C
:205A000010BD0120FFF7DCFF003C18BF0124034BDC730020F4E70320704700BF9C010020A1
:205A2000012810D810B50446084B9B7B0BB9032010BD0120FFF7C4FF003C18BF0124034BC9
:205A40001C740020F4E70320704700BF9C010020012810D810B50446084B9B7B0BB90320F5
:205A600010BD0120FFF7ACFF003C18BF0124034B5C740020F4E70320704700BF9C010020F0
:205A8000014BD87B704700BF9C010020014B187C704700BF9C010020014B587C704700BF8B
:205AA0009C01002008B501F06DFDC043C0B208BD012070470020704706207047012809D841
:205AC000054B003818BF01201873044A12681A6000207047032070479C010020E405002002
:205AE000014B187B704700BF9C010020012809D8054B003818BF01205873044A12685A60BD
:205B000000207047032070479C010020E4050020014B587B704700BF9C0100202DE9F0476F
:205B20008246884616465E4C00224FF400712046FCF7B2FC032001F087FD00224FF48071FE
:205B40002046FCF7A9FC012001F07EFD01224FF400712046FCF7A0FC032001F075FD002246
:205B60004FF400712046FCF797FC032001F06CFD01224FF480712046FCF78EFC012001F0BC
:205B800063FD00224FF480712046FCF785FC012001F05AFDBAF1000F19D00024DFF80091DD
:205BA0004FF400770325012239464846FCF774FC284601F049FD002239464846FCF76CFC41
:205BC000284601F041FD0134E4B2A245EBD1344C01224FF480712046FCF75EFC012001F01E
:205BE00033FD00224FF480712046FCF755FC012001F02AFDB8F1000F19D00024DFF8A09070
:205C00004FF400770325012239464846FCF744FC284601F019FD002239464846FCF73CFC70
:205C2000284601F011FD0134E4B2A045EBD11C4C01224FF480712046FCF72EFC012001F037
:205C400003FD00224FF480712046FCF725FC012001F0FAFCCEB10024DFF844804FF4007774
:205C60000325012239464046FCF716FC284601F0EBFC002239464046FCF70EFC284601F006
:205C8000E3FC0134E4B2A642EBD101224FF480710348FCF701FC012001F0D6FCBDE8F08724
:205CA000000400482DE9F84381460D462A4E00224FF480713046FCF7EFFB012001F0C4FC3A
:205CC00000224FF400713046FCF7E6FB022001F0BBFC9DB309EB050809F1FF39A9446B1EE1
:205CE000DBB2A9EB030901274FF4007503E008F1FF38C84522D0072418F8012C224102F0C8
:205D0000010204214FF09040FCF7C6FB384601F09BFC3A4629463046FCF7BEFB032001F06D
:205D200093FC002229463046FCF7B6FB022001F08BFC013CB4F1FF3FDED1D8E7012001F0EF
:205D400083FC01224FF480710348FCF7A5FB012001F07AFCBDE8F883000400482DE9F8434A
:205D600081460D46032202210846FFF7D7FE00224FF480712448FCF78FFB012001F064FCF7
:205D8000A5B309EB050809F1FF39A9446B1EDBB2A9EB030901271C4E4FF4007503E008F1AF
:205DA000FF38C84522D0072418F8012C224102F0010204214FF09040FCF76EFB384601F0EE
:205DC00043FC3A4629463046FCF766FB032001F03BFC002229463046FCF75EFB022001F01A
:205DE00033FC013CB4F1FF3FDED1D8E7012001F02BFC01224FF480710348FCF74DFB0120AF
:205E000001F022FCBDE8F883000400482DE9F04781460C46032202210420FFF77FFEACB363
:205E200009EB040609F1FF39A144631EDBB2A9EB03094FF0080A164D4FF4007802E0013E0F
:205E40004E4523D05446032780212846FCF71EFB16F8013C003818BF012040EA430006F8F7
:205E6000010C012241462846FCF716FB384601F0EBFB002241462846FCF70EFB384601F022
:205E8000E3FB013C14F0FF04DED1D8E7BDE8F087000400482DE9F04781460C46032204215A
:205EA0000846FFF73BFEACB309EB040609F1FF39A144631EDBB2A9EB03094FF0080A164D8F
:205EC0004FF4007802E0013E4E4523D05446032780212846FCF7DAFA16F8013C003818BF6C
:205EE000012040EA430006F8010C012241462846FCF7D2FA384601F0A7FB0022414628460A
:205F0000FCF7CAFA384601F09FFB013C14F0FF04DED1D8E7BDE8F0870004004870470000F0
:205F2000034B1B78012B86BF024B588800207047BD010020C4010020054B1B78012B00D861
:205F40007047044B5880044B01221A70F8E700BFBD010020C4010020BC010020034B1B7848
:205F6000012B86BF024B988800207047BD010020C4010020054B1B78012B00D87047044BBC
:205F80009880044B01221A70F8E700BFBD010020C4010020BC01002008B50120FFF7EAFFF2
:205FA0000020FFF7C9FF08BD10B5384B1B78052B0DD8DFE803F0030D262E42500823002251
:205FC0001146334801F00CFA304B01221A7010BD01F0D6F90028FAD02D4C06212046FFF755
:205FE0005BF9E38880B2834208D12A4B1B78002B14BF03220222254B1A70E8E7FFF7CCFF39
:20600000F3E7244B1B78002BE1D0204B03221A70DDE701F0B5F90028D9D01D4C0621204684
:20602000FFF73AF9E080082300221146204601F0B5F9164B04221A70C9E701F0A1F90028BA
:20604000C5D0082300221146134801F0C9F90F4B05221A70BBE701F093F90028B7D00822F6
:206060000B490D4802F0B8F840B90023094A13700A4A1360054B02221A70A8E7074A1368C3
:2060800001331360014B02221A70A0E7BD010020C4010020BC010020CC010020C00100206A
:2060A000034A01238340108803431380704700BFDC010020034A01238340108820EA0300EF
:2060C00010807047DC01002008B511B1FFF7E8FF08BDFFF7EFFFFBE7034B1B8843FA00F077
:2060E00000F00100704700BFDC010020014B1888704700BFDC010020024B1888B0FA80F0D6
:2061000040097047DC010020024B1888003818BF01207047DC01002008B5284B1B78012BC2
:2061200024D0022B37D003B108BD254B1988254B254A002918BF13460F2914BF0022012225
:2061400001F58041C2F50062490320489847204B18601B4A138801339BB21380102B1ABFD1
:20616000164B1A780122154B1A70DDE7194B1A68174B1B689A420AD1174B01221A70174B68
:206180001A68174B1A600D4B02221A70CCE70020FFF786FFC8E7114B1B68114A12689B1A35
:2061A0004EF66022934203D80B4B1B78002BBBD10023024A1370024A1380B5E748000020F4
:2061C000DE010020511B00080D1B000880060020D8010020FCFF0108D4010020E40500207B
:2061E000E0010020014B1878704700BFD4010020024B1A68024B1A60704700BFE405002042
:206200004C00002010B5FFF7EDFBF0B9304B1B68304A12689B1AB3F5FA7F36D82C4B1B68F6
:206220002D4A12689B1AF92B43D8294B1B682B4A12689B1A4B2B32D8FFF758FFC2B24FF45A
:2062400080512748FCF728F910BDFFF719FC244C021E18BF01224FF480612046FCF71CF9F6
:20626000FFF714FC021E18BF01224FF480512046FCF712F9FFF710FC021E18BF01224FF427
:2062800000612046FCF708F9DEE7114B1A68114B1A604FF400611248FCF703F9BEE70C4BE1
:2062A0001A680E4B1A604FF480610D48FCF7F9F8C2E7074B1B68094A12689B1A4B2BBBD922
:2062C00001224FF480610648FCF7E6F8B4E700BFE4050020E80100204C000020EC01002073
:2062E0000008004870B5384B1B78042B5CD8DFE803F0032033462000344B1A68344B1A6040
:20630000314B01221A7000252E462A46314C4FF480612046FCF7C0F832464FF40061204617
:20632000FCF7BAF82A464FF480512046FCF7B4F870BD264B1B68264A12689B1AB3F5FA7F4E
:2063400036D9224B1A68224B1A601F4B02221A7000252E460122D9E71C4B1B681C4A1268FA
:206360009B1AB3F5FA7F27D9184B1A68184B1A60154B03221A70002501262A46C6E7134BAF
:206380001B68134A12689B1AB3F5FA7F18D90F4B1A680F4B1A600C4B04221A7001250E4BA6
:2063A0001D7000263246B1E700252E462A46ADE700252E460122A9E7002501262A46A5E7E9
:2063C000012500263246A1E7E5010020E4050020F001002000080048E4010020014B187820
:2063E000704700BFE401002010B50C4640F63A03984224D840F63303984212D8A0F24D4370
:206400009BB2072B88BF022043D8A0F24D40072866D8DFE800F05D5D123F41434547324B9E
:2064200033E0A0F63400062858D8DFE800F0044F3D3F414345002D4B27E02D4B25E040F6A0
:20644000F423984216D8B0F52F6F11D3A0F52F60042841D801A353F820F000BF1F64000884
:20646000C9640008BD640008C1640008C564000802200EE041F2040398422BD041F2050306
:20648000984218BF022004D11A4B5CB398472080002010BD184BF8E7184BF6E7184BF4E7B4
:2064A000184BF2E7184BF0E7184BEEE7184BECE7184BEAE7184BE8E7184BE6E7184BE4E734
:2064C000184BE2E7184BE0E7184BDEE7184BDCE7184BDAE7184BD8E70220DAE70220D8E70E
:2064E0000220D6E70020D4E7E5590008915900085D720008115B000809610008ED60000898
:206500002D510008455100085D510008E958000809590008FD580008395900086559000831
:206520008D5A0008995A0008A55A0008815A0008D15800084D720008E15A000808B540F659
:20654000F323984228D8B0F52F6F19D240F63903984231D005D940F63A0398421AD11C4B53
:206560000AE040F24D43984228D040F63403984218BF022003D1174B41B30888984708BDFF
:20658000A0F52F6003281FD8DFE800F0021A1214114BF1E70220F2E741F20403984211D098
:2065A00041F20503984218BF0220E8D10B4BE3E70B4BE1E70B4BDFE70B4BDDE70B4BDBE788
:2065C0000B4BD9E70B4BD7E70220D8E7FF20D6E76D5900089D590008C1590008ED5A000897
:2065E000215A0008515A000841590008ED700008F1590008BD5A000810B50C4640F2B143B0
:2066000098420ED040F2B24398420CD0B0F5966F01D0022010BD064B3CB19847208000209E
:20662000F8E7044BF8E7044BF6E70020F2E700BFB15A0008B55A0008B95A00082DE9F041DD
:2066400006460C461546984663B11846F9F7C0FD87B286B1002C13DDE41B002C12DD1FB9C6
:20666000002009E00027F4E73A464146304601F0C1FD012000E0002005B12F70BDE8F08157
:206680000020F9E70020F7E710B50446084611461A46012C09D0022C09D00CB1022003E019
:2066A000044BFFF7CBFF002010BD034BF9E7034BF7E700BF509300083C9300084893000820
:2066C00000487047500000202DE9F041FCF700F804461D4B1B68D3F82880FFF7FFF8054639
:2066E000FFF71EF9B5FBF0F0184DB5FBF0F0F9F709FF06460F4608F10100B4FBF0F0B5FB36
:20670000F0F0F9F7FFFE04460D460022104B30463946F9F771FF22462B46FAF797F8FAF7F3
:20672000A5F90C4B186000220B4B30463946F9F763FF22462B46FAF789F8FAF797F9074B0F
:206740001860BDE8F08100BF3C08002000CA9A3B0000F83F7803002000000C407C0300202C
:20676000024B1B68186900F0010070473C08002030B10170C2F34001417002F001028270DC
:20678000704700000368064A12685A630368054A1268DA620268D36843F00303D360704718
:2067A000780300207C03002010B5094C2046FDF703FC23681A6922F003021A6100225A62AE
:2067C0002046FFF7DFFF2046FDF7DEFB10BD00BF3C080020124B1B681A69836F222B06D0E4
:2067E0000268138B9BB243F008031383704700B583B00368998C90F85C000023ADF8043061
:206800008DF80630014001A8FFF7B2FF01A90548FEF7D3FCFFF7C8FF03B05DF804FB00BFEE
:206820003C08002050000020836F202B49D190F87030012B47D0012380F870308368B3F5F3
:20684000805F06D0A3B9036973B9FF23A0F85C3014E0036923B940F2FF13A0F85C300DE0B8
:20686000FF23A0F85C3009E07F23A0F85C3005E0B3F1805F1BD00023A0F85C300023C3673C
:206880002222826701688A6842F480528A6001688A6842F001028A600C4A026680F870302E
:2068A00001680A6842F490720A601846704703691BB97F23A0F85C30E0E73F23A0F85C30F3
:2068C000DCE7022070470220704700BFD567000808B50348FFF7A8FFB0FA80F0400908BD73
:2068E0000807002010B50C4B1C7814B10024204610BD01221A708AB201460848FDF7E0FD4C
:2069000038B1431EDBB2012BF1D8034B00221A70EDE70124EBE700BF750300200807002060
