:020000040800F2
:200000000000012035810008F97F0008FD7F00080180000805800008098000080000000056
:200020000000000000000000000000000D8000081180000800000000158000081980000854
:20004000858100088581000885810008858100088581000885810008858100088581000830
:20006000858100088581000885810008218000088581000885810008858100088581000875
:200080008581000885810008858100088581000885810008858100088581000885810008F0
:2000A0008581000885810008858100088581000885810008000000000000000085810008EC
:2000C00085810008858100088581000831800008858100084180000885810008518000087F
:2000E0008581000885810008000000000000000000000000000000000000000000000000E4
:200100000000000085810008000000008581000800000000000000008581000885810008A7
:20012000858100088581000885810008858100088581000800000000000000000000000079
:2001400085810008858100088581000800000000858100088581000885810008858100083D
:20016000858100088581000885810008000000008581000885810008000000000000000039
:20018000858100088581000885810008FFFFFFFF10B5054C237833B9044B13B10448AFF39B
:2001A00000800123237010BDD00000200000000020920008084B10B51BB108490848AFF36A
:2001C00000800848036803B910BD074B002BFBD0BDE81040184700BF00000000D40000200C
:2001E00020920008CC00002000000000034613F8012B002AFBD1181A0138704700000000C1
:2002000001F0FF01102A2BDB10F0070F08D010F8013B013A8B422DD010F0070F42B3F6D1A4
:20022000F0B441EA012141EA014122F007047FF000070023F0E80256083C85EA010586EA51
:20024000010685FA47F5A3FA87F586FA47F6A5FA87F68EB9EED1F0BC01F0FF0102F007024C
:2002600032B110F8013B013A83EA010313B1F8D10020704701387047002D06BF35460338AF
:20028000073815F0010F07D1013015F4807F02BF013015F4C03F0130F0BC0138704700BF73
:2002A00081F0004102E000BF83F0004330B54FEA41044FEA430594EA050F08BF90EA020F6D
:2002C0001FBF54EA000C55EA020C7FEA645C7FEA655C00F0E2804FEA5454D4EB5555B8BF43
:2002E0006D420CDD2C4480EA020281EA030382EA000083EA010180EA020281EA0303362DFA
:2003000088BF30BD11F0004F4FEA01314FF4801C4CEA113102D0404261EB410113F0004F63
:200320004FEA03334CEA133302D0524263EB430394EA050F00F0A780A4F10104D5F1200EA1
:200340000DDB02FA0EFC22FA05F2801841F1000103FA0EF2801843FA05F359410EE0A5F1E9
:2003600020050EF1200E012A03FA0EFC28BF4CF0020C43FA05F3C01851EBE37101F00045F5
:2003800007D54FF0000EDCF1000C7EEB00006EEB0101B1F5801F1BD3B1F5001F0CD349086F
:2003A0005FEA30004FEA3C0C04F101044FEA445212F5800F80F09A80BCF1004F08BF5FEA4E
:2003C000500C50F1000041EB045141EA050130BD5FEA4C0C404141EB010111F4801FA4F158
:2003E0000104E9D191F0000F04BF01460020B1FA81F308BF2033A3F10B03B3F120020CDAFD
:200400000C3208DD02F1140CC2F10C0201FA0CF021FA02F10CE002F11402D8BFC2F1200C75
:2004200001FA02F120FA0CFCDCBF41EA0C019040E41AA2BF01EB0451294330BD6FEA0404AF
:200440001F3C1CDA0C340EDC04F11404C4F1200220FA04F001FA02F340EA030021FA04F300
:2004600045EA030130BDC4F10C04C4F1200220FA02F001FA04F340EA0300294630BD21FA1E
:2004800004F0294630BD94F0000F83F4801306BF81F480110134013D4EE77FEA645C18BFFC
:2004A0007FEA655C29D094EA050F08BF90EA020F05D054EA000C04BF1946104630BD91EA36
:2004C000030F1EBF0021002030BD5FEA545C05D14000494128BF41F0004130BD14F5800493
:2004E0003CBF01F5801130BD01F0004545F0FE4141F470014FF0000030BD7FEA645C1ABF0F
:20050000194610467FEA655C1CBF0B46024650EA013406BF52EA033591EA030F41F40021FD
:2005200030BD00BF90F0000F04BF0021704730B54FF4806404F132044FF000054FF000012A
:2005400050E700BF90F0000F04BF0021704730B54FF4806404F1320410F0004548BF404276
:200560004FF000013EE700BF42004FEAE2014FEA31014FEA02701FBF12F07F4393F07F4FF0
:2005800081F06051704792F0000F14BF93F07F4F704730B54FF4607401F0004521F0004192
:2005A00020E700BF50EA010208BF704730B54FF000050AE050EA010208BF704730B511F006
:2005C000004502D5404261EB41014FF4806404F132045FEA915C3FF4DCAE4FF003025FEA1D
:2005E000DC0C18BF03325FEADC0C18BF033202EBDC02C2F1200300FA03FC20FA02F001FA29
:2006000003FE40EA0E0021FA02F11444C1E600BF70B54FF0FF0C4CF4E06C1CEA11541DBF93
:200620001CEA135594EA0C0F95EA0C0F00F0DEF82C4481EA030621EA4C5123EA4C5350EAE1
:20064000013518BF52EA033541F4801143F4801338D0A0FB02CE4FF00005E1FB02E506F019
:200660000042E0FB03E54FF00006E1FB03569CF0000F18BF4EF0010EA4F1FF04B6F5007F7A
:2006800064F5407404D25FEA4E0E6D4146EB060642EAC62141EA55514FEAC52040EA5E500D
:2006A0004FEACE2EB4F1FD0C88BFBCF5E06F1ED8BEF1004F08BF5FEA500E50F1000041EB41
:2006C000045170BD06F0004646EA010140EA020081EA0301B4EB5C04C2BFD4EB0C0541EA14
:2006E000045170BD41F480114FF0000E013C00F3AB8014F1360FDEBF002001F0004170BDA4
:20070000C4F10004203C35DA0C341BDC04F11404C4F1200500FA05F320FA04F001FA05F2A5
:2007200040EA020001F0004221F0004110EBD37021FA04F642EB06015EEA430E08BF20EA17
:20074000D37070BDC4F10C04C4F1200500FA04F320FA05F001FA04F240EA020001F000413B
:2007600010EBD37041F100015EEA430E08BF20EAD37070BDC4F1200500FA05F24EEA020E1B
:2007800020FA04F301FA05F243EA020321FA04F001F0004121FA04F220EA020000EBD37098
:2007A0005EEA430E08BF20EAD37070BD94F0000F0FD101F00046400041EB010111F4801FA3
:2007C00008BF013CF7D041EA060195F0000F18BF704703F00046520043EB030313F4801F95
:2007E00008BF013DF7D043EA0603704794EA0C0F0CEA135518BF95EA0C0F0CD050EA41067B
:2008000018BF52EA4306D1D181EA030101F000414FF0000070BD50EA410606BF10461946D2
:2008200052EA430619D094EA0C0F02D150EA013613D195EA0C0F05D152EA03361CBF104673
:2008400019460AD181EA030101F0004141F0FE4141F470014FF0000070BD41F0FE4141F496
:20086000780170BD70B54FF0FF0C4CF4E06C1CEA11541DBF1CEA135594EA0C0F95EA0C0FEF
:2008800000F0A7F8A4EB050481EA030E52EA03354FEA013100F088804FEA03334FF080555B
:2008A00045EA131343EA12634FEA022245EA111545EA10654FEA00260EF000419D4208BFA7
:2008C000964244F1FD0404F5407402D25B084FEA3202B61A65EB03055B084FEA32024FF47E
:2008E00080104FF4002CB6EB020E75EB030E22BFB61A754640EA0C005B084FEA3202B6EBC4
:20090000020E75EB030E22BFB61A754640EA5C005B084FEA3202B6EB020E75EB030E22BF91
:20092000B61A754640EA9C005B084FEA3202B6EB020E75EB030E22BFB61A754640EADC0002
:2009400055EA060E18D04FEA051545EA16754FEA06164FEAC30343EA52734FEAC2025FEAC3
:200960001C1CC0D111F4801F0BD141EA00014FF000004FF0004CB6E711F4801F04BF0143F0
:200980000020B4F1FD0C88BFBCF5E06F3FF6AFAEB5EB030C04BFB6EB020C5FEA500C50F1A9
:2009A000000041EB045170BD0EF0004E4EEA113114EB5C04C2BFD4EB0C0541EA045170BD66
:2009C00041F480114FF0000E013C90E645EA060E8DE60CEA135594EA0C0F08BF95EA0C0F43
:2009E0003FF43BAF94EA0C0F0AD150EA01347FF434AF95EA0C0F7FF425AF104619462CE7F8
:200A000095EA0C0F06D152EA03353FF4FDAE1046194622E750EA410618BF52EA43067FF405
:200A2000C5AE50EA41047FF40DAF52EA43057FF4EBAE12E74FEA410212F5001215D211D5AA
:200A40006FF47873B3EB625212D94FEAC12343F0004343EA505311F0004F23FA02F018BF72
:200A6000404270474FF00000704750EA013005D111F0004008BF6FF0004070474FF0000069
:200A8000704700BF4A0011D212F5001211D20DD56FF47873B3EB62520ED44FEAC12343F003
:200AA000004343EA505323FA02F070474FF00000704750EA013002D14FF0FF3070474FF0C5
:200AC0000000704753B94AB9002908BF00281CBF4FF0FF314FF0FF3000F07EB9ADF1080CA7
:200AE0006DE904CE00F006F8DDF804E0DDE9022304B070472DE9F0478C460E460446089D6F
:200B0000002B50D18A4217466CD9B2FA82FEBEF1000F0BD0CEF1200420FA04F401FA0EF662
:200B200044EA060C02FA0EF700FA0EF44FEA1749220CBCFBF9F01FFA87F809FB10C642EA73
:200B4000064600FB08F3B34209D9F61900F1FF3280F02281B34240F21F8102383E44F61AA5
:200B6000A2B2B6FBF9F309FB136642EA064403FB08F8A04509D9E41903F1FF3280F00A81AF
:200B8000A04540F20781023B3C44C8EB040443EA00400021002D62D024FA0EF400232C6082
:200BA0006B60BDE8F0878B4207D9002D55D0002185E841000846BDE8F087B3FA83F10029CC
:200BC00040F09080B34202D3824200F2F880841A66EB03060120B446002D40D085E8101000
:200BE000BDE8F08712B90127B7FBF2F7B7FA87FEBEF1000F35D1F31B4FEA17481FFA87FC0F
:200C00000121B3FBF8F0220C08FB103642EA06460CFB00F3B34207D9F61900F1FF3202D259
:200C2000B34200F2CE801046F61AA2B2B6FBF8F308FB136642EA06440CFB03FCA44507D968
:200C4000E41903F1FF3202D2A44500F2B5801346CCEB040443EA00409CE729462846BDE804
:200C6000F087CEF1200106FA0EF307FA0EF720FA01F94FEA1748CE4049EA0309B6FBF8FA7A
:200C80004FEA194408FB1A661FFA87FC44EA06430AFB0CF29A4200FA0EF40AD9DB190AF17B
:200CA000FF3180F087809A4240F28480AAF1020A3B449B1A1FFA89F9B3FBF8F108FB113327
:200CC00049EA034301FB0CF69E4207D9DB1901F1FF326BD29E4269D902393B449B1B41EACC
:200CE0000A418EE7C1F1200E22FA0EF48B40234320FA0EF706FA01F44FEA134C26FA0EF635
:200D00003C43B6FBFCF9270C0CFB19661FFA83F847EA064609FB08F7B74202FA01F200FAFF
:200D200001FA08D9F61809F1FF3041D2B7423FD9A9F102091E44F61BA0B2B6FBFCF40CFB6A
:200D4000146640EA064704FB08F8B84507D9FF1804F1FF3028D2B84526D9023C1F4444EAC6
:200D60000940C8EB0707A0FB02894F4544464E4614D329D065B3BAEB040367EB060707FA8D
:200D80000EFECB40CF404EEA030385E888000021BDE8F0871346F8E61046E0E6B8EB0204C1
:200DA00069EB03060138E5E70446D8E7114695E78146C0E78A467CE7023B3C4448E708461A
:200DC0000AE702383E442FE7C245E7D33E46D1E72946BDE8F08700BF704700BF104B1B68B5
:200DE000C3B110B504464FF47A70B0FBF3F30D4A1068B0FBF3F000F0A9FD68B90F2C0DD87E
:200E0000002221464FF0FF3000F060FD064B1C60002010BD01207047012010BD012010BD20
:200E200004000020640000200000002008B5032000F03AFD0020FFF7D1FF18B906F08CFFAB
:200E4000002008BD012008BD034A1168034B1B680B441360704700BFEC05002004000020C3
:200E6000014B1868704700BFEC05002030B583B000230193002800F0CE800446436D2BB90C
:200E800006F090FF0023A36584F8503023689A6812F0005F05D09A6822F0204222F03F021A
:200EA0009A602268936813F0805F17D1936823F0104323F03F0343F080539360574B1B6815
:200EC0009B09574AA2FB03239B090193019B2BB1019B013B0193019B002BF9D123689A68D0
:200EE00012F0805F09D1626D42F010026265A26D42F00102A265012000E000209968626D21
:200F000012F0100F40F0818011F0040F7DD1626D22F4817242F0020262659B6813F0010F32
:200F20000BD1404B9B6813F0010F06D13E498B6823F47C12636813438B6094F82010626BA9
:200F4000E3681A43A3681343627E43EA423343EA0143012903D1626A013A43EA4243A26AD2
:200F600022B102F47072E16A0A4313432168CD682E4A2A401343CB6023689A68996812F027
:200F8000040F2AD111F0080F27D1D968257E94F83020520042EA853521F4804222F002024E
:200FA0002A43DA6094F83830012B11D125682A69E16B236C0B4343F00103616C0B43A16CE0
:200FC000194322F4FF6323F004030B432B6104E02268136923F0010313612369012B08D143
:200FE00021680B6BE269013A23F00F0313430B6304E02268136B23F00F031363636D23F019
:20100000030343F00103636506E0636D43F010036365012000E0012003B030BD64000020C1
:20102000632D3E05000004500003045007C0F0FFF8B506460C461546FFF712FF074611E091
:20104000B5F1FF3F0FD0FFF70BFFC01B854200D345B9736D43F004037365002386F8503047
:201060000320F8BD3268136834EA0303E8D1B4F5807F1CD004D8022C09D0802C0FD035E08F
:20108000B4F5007F1CD0B4F5806F22D02EE0736D43F400637365022313600020F8BD736D05
:2010A00043F480337365802313600020F8BD736D43F4003373654FF4807313600020F8BDE3
:2010C000736D43F4802373654FF4007313600020F8BD736D43F480437365B36D43F0080370
:2010E000B3654FF4806313600020F8BD736B4BB9736D43F480637365B36D43F00203B36546
:201100000020F8BD102313600020F8BD08B5806A04F05CF808BD00BF08B5836A5A6D12F099
:20112000500F31D15A6D42F400725A651A68116811F0080F14D0D16811F4406F20D1D26811
:2011400012F4005F1CD15A6D22F480725A655A6D12F4805F14D15A6D42F001025A650FE074
:20116000D26812F0020F0BD15A6D22F480725A655A6D12F4805F03D15A6D42F001025A657D
:20118000184604F01DF808BD5A6D12F0100F03D0184604F01DF808BDDB6C5B6B984708BD8B
:2011A00008B5806A436D43F040034365836D43F00403836504F00CF808BD00BFF0B482B056
:2011C0000023019390F85030012B00F0D181012380F8503003689B6813F0040F40F0AC81E5
:2011E0004B68052B15D8023B032B10D8DFE803F00205080B0C234B600BE012234B6008E06B
:2012000018234B6005E04FF480734B6001E006234B604B689E0906F00C060568303572596E
:2012200003F01F030C68C4F384649C401F2707FA03F322EA03032343735103689A689C68C0
:2012400012F0040F40F0868014F0080F40F082800A68D50D05F004051433EF58C2F3045409
:201260000722A24027EA02068A68A2403243EA500368DC680D69042D15D003F1600252F8EC
:201280002560C4F3C10464004B6903FA04F40B6803F0F84343F000432343B74C34402343E6
:2012A00042F8253056E01A6E1C6EC4F384640A68C2F3120515B9C2F3846203E092FAA2F20E
:2012C000B2FA82F2A24203D11A6E22F000421A660468636E626EC2F384620B68C3F31205F2
:2012E00015B9C3F3846303E093FAA3F3B3FA83F3934203D1636E23F0004363660468A36E44
:20130000A26EC2F384620B68C3F3120515B9C3F3846303E093FAA3F3B3FA83F3934203D1A5
:20132000A36E23F00043A3660468E36EE26EC2F384620B68C3F3120515B9C3F3846303E007
:2013400093FAA3F3B3FA83F3934203D1E36E23F00043E36603689A6812F0010F40F09580EA
:20136000D3F8B0500A68C2F31202CC6804F01806824CF4406C4022406A40C3F8B020CA68AA
:201380007F4B9A4240F0818004680A68C2F3120333B9930E013303F01F05092D0AD932E0CB
:2013A00092FAA2F3B3FA83F3013303F01F03092B0AD939E09B0603F0F8420123AB4013433D
:2013C00005EB45052A051CE092FAA2F3B3FA83F392FAA2F501339B0603F0F846B5FA85F314
:2013E000013303F01F03012505FA03F3334392FAA2F2B2FA82F22A4402F01F0202EB420221
:201400001205134331E0930E013303F01F029B0603F0F843012595402B4302EB42021E3AA4
:20142000120542F000721FE092FAA2F3B3FA83F392FAA2F501339B0603F0F843B5FA85F55F
:20144000013505F01F05012606FA05F52B4392FAA2F2B2FA82F2324402F01F0202EB4202B4
:201460001E3A120542F000721343DD0D05F0040514342A59C3F3045307269E4022EA060620
:201480008A6802FA03F333432B510B683D4A134258D03D4A926802F0E0743C498B4223D1F2
:2014A00012F4000F50D10268394B9A424ED1364A936823F0E073234343F400039360354B19
:2014C0001B689B09344AA2FB03239B0903EB43039B000193019B002B3AD0019B013B019360
:2014E000019B002BF9D13EE02C498B4210D112F0807F2FD10268264B9A422DD1224A9368FD
:2015000023F0E073234343F08073936000232AE023498B4222D112F4800F21D102681C4B35
:201520009A421FD1184A936823F0E073234343F480039360002316E0436D43F02003436542
:20154000012310E000230EE000230CE000230AE0002308E0002306E0002304E0002302E02A
:20156000002300E00023002280F85020184600E0022002B0F0BC704700F0FF03FFFF0700CF
:2015800000007F400000088000030450000052C70000045064000020632D3E05000084CB9A
:2015A0000100008038B503689A6812F0010F3CD199681F4A114209D0436D43F010034365FD
:2015C000836D43F001038365012038BD04469A6822F0004222F03F0242F001029A60FFF7CE
:2015E0003FFC05461AE09A6812F0010F07D19A6822F0004222F03F0242F001029A60FFF7B1
:201600002FFC401B022809D9636D43F010036365A36D43F00103A365012038BD23681A68E8
:2016200012F0010FDFD0002038BD002038BD00BF3F00008003689B6813F0040F3BD190F829
:201640005030012B39D010B50446012380F85030FFF7A8FF58BB636D23F4706323F0010329
:2016600043F480736365636D13F4805F1ABFA36D23F006030023A36523681C221A6000232C
:2016800084F850302268D36813F0007F05D0636D23F4405343F480536365936823F0004395
:2016A00023F03F0343F004039360002010BD002284F8502010BD022070470220704700BF6F
:2016C00070B50468A46814F0040F4CD190F85030012B4AD016460D460446012380F85030D6
:2016E000FFF760FF00283AD1636D23F4706323F0010343F480736365636D13F4805F1ABF10
:20170000A36D23F006030023A365E36C184ADA62E36C184A1A63E36C174A5A6323681C2221
:201720001A60002384F850302268536843F0100353602268D36843F00103D36021683346A1
:201740002A464031E06C00F0E3FA2268936823F0004323F03F0343F00403936070BD0022E3
:2017600084F8502070BD022070BD022070BD00BF191100080D110008A111000838B5036889
:2017800099689A6812F0010F37D011F0020F36D19A6802F00D02012A0FD104469A6822F0A8
:2017A000004222F03F0242F002029A60036803221A60FFF755FB054618E0436D43F01003DB
:2017C0004365836D43F001038365012038BDFFF747FB401B022809D9636D43F010036365BF
:2017E000A36D43F00103A365012038BD23689B6813F0010FEBD1002038BD002038BD0020DD
:2018000038BD00BF30B583B00023019390F85030012B44D00D460446012380F85030FFF74E
:20182000ADFF0346002831D1626D22F4885222F0020242F0020262652068816821F04041B4
:2018400021F03F0141F0004205F08041114381602168144810E0019A01320192019A824244
:201860000AD9636D23F0120343F010036365002384F85030012013E08A68002AEBDB626D9B
:2018800022F0030242F00102626503E0626D42F010026265002284F85020184600E002200A
:2018A00003B030BDFF870400074AD36823F4E0631B041B0C43F0BF6343F40033000200F41D
:2018C000E0600343D360704700ED00E030B4164BDB68C3F30223C3F10704042C28BF04246A
:2018E0001D1D062D8CBF033B0023012505FA04F4013C0C409C4005FA03F3013B1A4022435D
:20190000002808DB1201D2B200F1604000F5614080F8002305E000F00F001201D2B2034B9A
:201920001A5430BC704700BF00ED00E014ED00E0002808DB420900F01F00012303FA00F0B3
:20194000014B43F82200704700E100E00138B0F1807F0AD2064B5860F021064A82F823109A
:201960000020986007221A6070470120704700BF10E000E000ED00E0F0B55FEA920E11D052
:201980000B4601EB8E0706681D785C78240444EA0564DD782C439D7844EA052434600433E4
:2019A000BB42F0D112F0030220D0012A04D1036811F82E201A7019E0022A09D111F82E20D0
:2019C00001EB8E014B7843EA0223026813800DE0032A0BD111F82E2001EB8E014B7843EAC2
:2019E00002230268138003688A781A7003681868F0BD00BFF0B55FEA520E0BD00B4601EB11
:201A00008E0705681E885C8844EA06442C600433BB42F6D112F0010F03D0036831F82E2074
:201A20001A8003681868F0BD002838D010B50446437F13F0FF0F03D10023037706F002FAFF
:201A400002236377237943B92368174A5A612268936823F01803936005E0E268A168204604
:201A600000F072F8E8B9637923B923684FF0FF321A6102E0236822691A6121688B6823F03B
:201A80006002636913438B6021688B6823F08002A36913438B6001236377002010BD01206D
:201AA0007047012010BD00BFB71DC10438B5044602234377036A022B14D0032B02D0012B69
:201AC00013D10CE042B10B4601EB8202206853F8045B05609342F9D12368186806E0FFF765
:201AE0004BFF03E0FFF786FF00E000200123637738BD00BF38B50446022343770068836823
:201B000043F001038360236A022B15D0032B02D0012B15D10CE042B10B4601EB82022068D2
:201B200053F8045B05609342F9D12368186808E02046FFF721FF04E02046FFF75BFF00E00E
:201B400000200123637738BD10B41E2303E0013BB3F1FF3F23D003F01F0421FA04F414F04C
:201B6000010FF4D01BE0062B94BF0023012308E0072B94BF0023012303E00F2B94BF002384
:201B80000123002B42D10368596101688B6823F018031A438A60002338E0012336E0182A36
:201BA000FBD801A454F822F0871B00089B1B00089B1B00089B1B00089B1B00089B1B0008EF
:201BC0009B1B00089B1B00087B1B00089B1B00089B1B00089B1B00089B1B00089B1B000835
:201BE0009B1B00089B1B0008711B00089B1B00089B1B00089B1B00089B1B00089B1B00081F
:201C00009B1B00089B1B0008671B000818465DF8044B7047002868D010B403460168354AB0
:201C200091420AD8344A0A443449A1FB0212120992004264324A026409E0324A0A442F4996
:201C4000A1FB02121209920042642F4A0264022283F825201C68226822F4FF4222F07002D5
:201C60009868D9680843196908435969084399690843D9690843196A01430A4322609A688C
:201C8000B2F5804F29D0196C1D4A914212D1A8321068596C01F01C040F21A14020EA0101EE
:201CA00011601068596C01F01C045968A1400143116012E0154A1068596C01F01C010F243F
:201CC00004FA01F120EA010111601068596C01F01C045968A140014311600020D863012274
:201CE00083F8252083F8240001E0012070475DF8044B704707040240F8FFFDBFCDCCCCCC40
:201D000000000240F8FBFDBF00040240A804024070B490F82440012C44D0012480F824404C
:201D200090F82540E4B2012C37D1022480F825400024C46305682C6824F001042C60056C86
:201D4000446C04F01C060124B4406C60046863608368102B04D103689A600368D96003E0C2
:201D6000036899600368DA60036B2BB10268136843F00E03136009E00268136823F004038C
:201D800013600268136843F00A0313600268136843F001031360002005E0002380F82430B5
:201DA000022000E0022070BC704700BF08B590F82530DBB2022B03D00423C363012008BD03
:201DC0000268136823F00E0313600268136823F001031360016C436C03F01C03012202FACB
:201DE00003F34B6080F82520002380F82430836B13B19847002008BD002008BD38B5036CDF
:201E0000196804682568436C03F01C0304229A400A4216D015F0040F13D0236813F0200F9D
:201E200003D1236823F004032360016C436C03F01C02042393404B60036B002B3ED098474E
:201E400038BD02229A400A421BD015F0020F18D0236813F0200F06D1236823F00A03236098
:201E6000012380F82530016C436C03F01C02022393404B60002380F82430C36AF3B1984702
:201E800038BD082202FA03F30B4217D015F0080F14D0236823F00E032360016C436C03F0BC
:201EA0001C03012202FA03F34B60C26380F82520002380F82430436B03B1984738BD00BF7D
:201EC000074B5B69002B08DA054B064A9A6002F188329A605869C00F70470020704700BFC1
:201EE0000020024023016745034A536943F0004353610020704700BF00200240074B5B696F
:201F000013F0804F07D0054B054ADA6002F14432DA60002070470120704700BF00200240CC
:201F20003B2A1908034A536943F0804353610020704700BF0020024070B50546FEF790FF7C
:201F40000646144C07E0B5F1FF3F04D0FEF788FF801B85421AD9236913F4803FF3D10D4BF7
:201F60001B690D4A134007D00C494A681A434A60084A1361012070BD064B1B6913F0010F52
:201F800006D00122034B1A61002070BD032070BD002070BD00200240FAC30200080000204C
:201FA00008B5054A536943F0006353614CF25030FFF7C2FF08BD00BF002002409B4B1B783B
:201FC000012B00F030812DE9F0410446974B01221A7000225A60036813F0010F2FD046680D
:201FE0008768D0F80C804CF25030FFF7A5FF054608BB46B98E4AD36A23F07F1343EA084307
:202000003B43D36209E0012E07D1894A136B23F07F1343EA08433B431363854E736943F4D5
:20202000003373614CF25030FFF786FF0546736923F400337361003518BF012500E00025E4
:20204000236813F0020F1CD027694CF25030FFF773FFA8B9764E336A23F0FF031F4337626D
:20206000736943F4003373614CF25030FFF764FF736923F400337361002818BF012500E030
:202080000125236813F0040F00F088806669A7694CF25030FFF750FF00287ED116F0010F12
:2020A00019BF07F4E0634FF4E0620022134616F0020F04D007F480510B4342F4805216F0F7
:2020C000040F04D007F400510B4342F4005216F4805F04D007F480410B4342F4804216F032
:2020E000080F04D007F480310B4342F4803216F0100F04D007F400310B4342F4003216F032
:20210000200F04D007F480210B4342F4802216F0400F04D007F400210B4342F4002216F405
:20212000007F04D007F400010B4342F4000216F4806F04D007F080710B4342F0807216F499
:20214000006F04D007F000710B4342F0007216F4005F04D007F080610B4342F0806216F461
:20216000804F04D007F000673B4342F00062304E316A21EA020213433362736943F40033F3
:2021800073614CF25030FFF7D7FE736923F400337361002818BF012500E00125236813F02F
:2021A000080F3AD0276A666AB74236D0E4694CF25030FFF7C1FE78BB14F0010F14D01C4A4D
:2021C000536A07F1784723F4FF4323F07F0343EAD7075762936A06F1784623F4FF4323F0BB
:2021E0007F0343EAD6069662114EB36A23F0004304F000441C43B462736943F400337361C3
:202200004CF25030FFF798FE736923F400337361002818BF012500E001250022034B1A7055
:202220002846BDE8F0810220704700BF0800002000200240062303604368012B17D807227D
:2022400002604BB9214AD36A03F07F038360D36AC3F30643C3600AE0012B08D11B4A136BE7
:2022600003F07F038360136BC3F30643C360174B1B6ADBB2AA2B01D0CC2B03D1134B1B6A9E
:20228000DBB200E0BB230361104B1B6A23F0FF038361C369012B18D1036843F00803036069
:2022A0000A494A6A0A4B03EAC20202F1006202628A6A03EAC20303F10063073343628B6A87
:2022C00003F0004343F00103C361704700200240F8FF03000A68002A00F0D4802DE9F04F25
:2022E00083B000252C464FF0030EDFF8A4C1664E012303FA04F818EA020200F0B9804B68D5
:2023000023F01003013B012B13D883680EFA05F923EA0909CB68AB4043EA0903836043684F
:2023200023EA08084B68C3F30013A34043EA08034360C3680EFA05F86FEA080803EA0803B5
:202340008F6807FA05F949EA0303C3604B6823F01003022B14D14FEAD40900EB8909D9F8DC
:2023600020A004F007039B000F2707FA03FB2AEA0B0A0F6907FA03F343EA0A03C9F82030EC
:20238000036808EA03084B6803F00303AB4043EA080303604B6813F0805F69D0DCF8603071
:2023A00043F00103CCF86030DCF8603003F001030193019B24F0030303F1804303F580338B
:2023C000D3F8089004F0030A4FEA8A0A0F2707FA0AF829EA0809B0F1904F13D02B4FB84298
:2023E00013D007F58067B84212D007F58067B84211D007F58067B8420CBF4FF004084FF04B
:20240000070809E04FF0000806E04FF0010803E04FF0020800E0F04608FA0AF848EA0908C6
:20242000C3F8088033686FEA02084F6817F4803F0CBF03EA08031343336073684F6817F491
:20244000003F0CBF08EA030313437360B3684F6817F4801F0CBF08EA03031343B360F3684E
:202460004F6817F4001F0CBF08EA03021A43F26001340A68023532FA04F37FF439AF03B0FB
:20248000BDE8F08F704700BF0004014000040048001002400369194214BF0120002070472D
:2024A0000AB1816170478162704700BF43690B4214BF81628161704730B338B504460368A2
:2024C0004CF6CC421A60036845F255521A60036842685A60036882689A60FEF7C1FC054654
:2024E00004E0FEF7BDFC401B30280FD82368DA68002AF6D11969E268914212BF1A614AF6C7
:20250000AA221A60002038BD01207047032038BD03684AF6AA221A60002070471E494B688E
:2025200023F00E02036813434B601C4B5A6822F480325A601A6822F480321A60DA6822F445
:202540008032DA609A6822F480329A60436813F4803F04D0114A136843F4803313604368A8
:2025600013F4003F04D00D4A536843F480335360436813F0010F04D0084A936843F48033C9
:202580009360436813F0020F04D0044AD36843F48033D36000207047007000400004014043
:2025A000024A536843F001035360704700700040024B186800F4C060704700BF00700040BC
:2025C000B0F5007F2DD1214B1B6803F4C063B3F5007F36D01D4A136823F4C06343F40073DD
:2025E00013601B4B1968322303FB01F31949A1FB03139B0C0133526912F4806F08D03BB1D7
:202600001249013B4A6912F4806F01D0002BF8D10E4B5B6903F48063002B14BF032000207E
:2026200070470A4B1B6803F4C063B3F5806F0AD0064A136823F4C06343F4806313600020CE
:202640007047002070470020704700BF007000406400002083DE1B4330B583B004461E4B98
:202660009B6D13F0805F02D0FFF7A2FF0FE01A4DAB6D43F08053AB65AB6D03F08053019311
:20268000019BFFF795FFAB6D23F08053AB65B0F5007F06D1802C0CD9A02C8CBF022201221C
:2026A0000CE0802C07D808D0702C14BF0022012204E0002202E0032200E0022207490B6843
:2026C00023F0070313430B60086800F00700801A18BF012003B030BD0010024000200240CF
:2026E000264A9368D26813F00C0305D00C2B15D102F00302012A1BD1204A126812F0080F26
:202700001E4A07BFD2F89420C2F303221268C2F303121B4951F8220073B306E0042B2AD0EB
:20272000082B184818BF002070470C2B01D020E00020124BDB6803F00303022B04D0114A3B
:20274000032B08BF104600E00F480C4AD368D168C1F3062100FB01F0C3F302130133B0FBBC
:20276000F3F3D068C0F3416001304000B3FBF0F07047002070470448704700BF0010024046
:202780007099000800127A000024F400002800F020832DE9F04383B00446A54B9D6805F019
:2027A0000C05DE6806F00306036813F0100F00F0A1801DB10C2D5ED1012E5CD19C4B1B6829
:2027C00013F0020F03D0A369002B00F00483206A974B1B6813F0080F954B12BF1B68D3F85C
:2027E00094301B0903F0F003834217D2FFF734FF002840F0F2828E4B1A6842F008021A6057
:202800001A6822F0F001226A0A431A605A68E16922F47F4242EA01225A6018E0844B1A68AB
:2028200042F008021A601A6822F0F001226A0A431A605A68E16922F47F4242EA01225A601E
:202840002DB9206AFFF708FF002840F0C882FFF747FF774B9B68C3F30313764AD35C03F0BA
:202860001F03D840744B1860744B1868FEF7B6FA00283FD0B5E2A3693BB36D4A136843F0D6
:2028800001031360FEF7ECFA8046694F06E0FEF7E7FAC8EB0000022800F2A4823B6813F011
:2028A000020FF4D0624B1A6842F008021A601A6822F0F001226A0A431A605A68E16922F464
:2028C0007F4242EA01225A6014E0594A136823F001031360FEF7C4FA8046554F06E0FEF79A
:2028E000BFFAC8EB0000022800F27E823B6813F0020FF4D1236813F0010F54D0082D03D00A
:202900000C2D0AD1032E08D1494B1B6813F4003F49D06368002B46D168E26368B3F5803F9A
:2029200005D1434A136843F48033136018E0B3F5A02F0CD103F18043A3F53C331A6842F49A
:2029400080221A601A6842F480321A6008E0384B1A6822F480321A601A6822F480221A6094
:20296000636883B1FEF77CFA8046314F06E0FEF777FAC8EB0000642800F23A823B6813F4C4
:20298000003FF4D00FE0FEF76BFA8046284F06E0FEF766FAC8EB0000642800F22B823B68F2
:2029A00013F4003FF4D1236813F0020F52D0042D03D00C2D13D1022E11D11D4B1B6813F426
:2029C000806F03D0E368002B00F01682184A5368216923F0F85343EA016353603AE0E36889
:2029E000E3B1134A136843F480731360FEF738FA07460F4E05E0FEF733FAC01B022800F2FF
:202A0000FD81336813F4806FF5D0094A5368216923F0F85343EA016353601BE0044A1368E4
:202A200023F480731360FEF71BFA0746004E0DE00010024058990008640000200000002098
:202A4000FEF70EFAC01B022800F2DA81336813F4806FF5D1236813F0080F30D06369BBB1F3
:202A6000B64AD2F8943043F00103C2F89430FEF7F7F90746B14E05E0FEF7F2F9C01B022818
:202A800000F2C081D6F8943013F0020FF4D016E0AA4AD2F8943023F00103C2F89430FEF797
:202AA000DFF90746A54E05E0FEF7DAF9C01B022800F2AA81D6F8943013F0020FF4D1236839
:202AC00013F0040F00F083809C4B9B6D13F0805F0BD19A4B9A6D42F080529A659B6D03F056
:202AE00080530193019B012600E00026944B1B6813F4807F14D1924A136843F48073136065
:202B0000FEF7AEF980468E4F06E0FEF7A9F9C8EB0000022800F27A813B6813F4807FF4D0C2
:202B2000A368012B07D1854AD2F8903043F00103C2F890301CE0052B0DD1804BD3F890202C
:202B400042F00402C3F89020D3F8902042F00102C3F890200CE0794BD3F8902022F0010277
:202B6000C3F89020D3F8902022F00402C3F89020A3689BB1FEF774F98146704F41F28838BA
:202B800006E0FEF76DF9C9EB0000404500F24081D7F8903013F0020FF3D012E0FEF760F962
:202BA0008146664F41F2883806E0FEF759F9C9EB0000404500F22E81D7F8903013F0020FFC
:202BC000F3D126B15D4A936D23F080539365236813F0200F30D0636ABBB1584AD2F89830AB
:202BE00043F00103C2F89830FEF73AF90746534E05E0FEF735F9C01B022800F20D81D6F8AB
:202C0000983013F0020FF4D016E04C4AD2F8983023F00103C2F89830FEF722F90746474E6B
:202C200005E0FEF71DF9C01B022800F2F780D6F8983013F0020FF4D1A36A002B00F0F0802F
:202C4000022B40F09F803D4BDB6803F00301E26A914222D103F07002216B0139B2EB011F3C
:202C60001BD103F4FE42616BB2EB012F15D103F07842A16BB2EBC16F0FD103F4C001E26B47
:202C80005208013AB1EB425F07D103F0C063226C5208013AB3EB426F56D00C2D00F0C28071
:202CA000264B1B6813F0806F40F0BE80234A136823F080731360FEF7D3F806461F4D05E002
:202CC000FEF7CEF8801B022800F2B0802B6813F0007FF5D1194AD068616B1A4B034043EA3B
:202CE0000121E36A0B43A16B43EAC163216B013943EA0113E16B4908013943EA4153216C8E
:202D00004908013943EA4163D360136843F080731360D36843F08073D360FEF7A1F80546A3
:202D2000064C05E0FEF79CF8401B022800F28080236813F0007FF5D0002082E000100240B6
:202D4000007000408C809D013F4B1B6813F0007F70D13D4B1A6842F080721A60DA6842F02D
:202D60008072DA60FEF77CF80546374C04E0FEF777F8401B02285FD8236813F0007FF6D019
:202D800000205EE00C2D59D02F4B1A6822F080721A601B6813F0006F04D12B4AD36823F06C
:202DA0000303D360284AD36823F0887323F48033D360FEF755F80546234C04E0FEF750F805
:202DC000401B02283CD8236813F0007FF6D1002037E001207047012033E0012031E00120F0
:202DE0002FE02EE003202CE003202AE0012028E0032026E0032024E0012022E0032020E09B
:202E000003201EE003201CE003201AE0032018E0032016E0032014E0032012E0032010E0E2
:202E200000200EE001200CE001200AE0032008E0032006E0002004E0032002E0012000E04E
:202E4000032003B0BDE8F08300100240002800F097802DE9F0410446554B1B6803F0070352
:202E60008B420BD2524A136823F007030B431360136803F00703994240F084800D4623684E
:202E800013F0010F36D06368032B05D1494A126812F0007F14D178E0022B05D1454A126873
:202EA00012F4003F0CD173E02BB9424A126812F0020F05D16FE03F4A126812F4806F6DD046
:202EC0003C498A6822F0030213438B60FDF7C8FF8046384E41F2883705E0FDF7C1FFC8EBDE
:202EE0000000B8425DD8B36803F00C036268B3EB820FF2D1236813F0020F06D02D498B68EC
:202F000023F0F002A36813438B60294B1B6803F007039D420AD2264A136823F007032B433B
:202F20001360136803F007039D423DD1236813F0040F06D01F498B6823F4E062E3681343ED
:202F40008B60236813F0080F07D01A4A9368216923F4605343EAC1039360FFF7C1FB154B61
:202F60009B68C3F30313144AD35C03F01F03D840124B1860124B1868FDF730FFBDE8F081DD
:202F8000012070470120BDE8F0810120BDE8F0810120BDE8F0810120BDE8F0810120BDE8B7
:202FA000F0810320BDE8F0810120BDE8F08100BF0020024000100240589900086400002040
:202FC00000000020054B9B68C3F30223044AD35C03F01F03034A1068D8407047001002402B
:202FE0006899000864000020054B9B68C3F3C223044AD35C03F01F03034A1068D840704730
:20300000001002406899000864000020F8B55B4BDB6813F0030F14D0584BDB6803F0030363
:203020000268934240F08D80002B00F08C80534BDB68C3F3021301334268934240F0858059
:2030400085E00268022A0AD0032A0FD0012A19D14A4B1B6883F00203C3F3400313E0474B6C
:203060001B6883F48063C3F380230CE0434B1B6813F4003F09D1414B1B6883F48023C3F31E
:20308000804300E00123002B76D13C4DEC684368013B24F07304224342EA0312EA6056E082
:2030A000FDF7DEFE401B022847D8236813F0006FF6D158E031490A69B06822F0784323F4B7
:2030C000FE4343EA0023F26843EAC2630B6120E0012F0FD12948026933695B08591EB468C9
:2030E00022F4C00323F4FE4343EA042343EA415303610EE02148026973695B08591EB46892
:2031000022F0C06323F4FE4343EA042343EA416303611A4A136843F080631360FDF7A0FE9F
:203120000546164C04E0FDF79BFE401B022806D8236813F0006FF6D018E003231CE003230B
:203140001AE0012318E0012316E0012314E00F4606460A4A136823F080631360FDF780FEDC
:203160000546064CA1E7002FA4D0B1E7034A1169B3690B43136100231846F8BD00100240C2
:203180002DE9F04383B00446036813F4006F21D0436CB3F5000F04D0B3F5400F0DD0DBB9F5
:2031A00005E0B64AD36843F48033D36007E000210430FFF72BFF074600E000276FB9AF4902
:2031C000D1F8883023F44002636C1343C1F88830002702E0002700E00127236813F4003F76
:2031E0006ED0A64B9B6D13F0805F0CD1A34B9A6D42F080529A659B6D03F080530193019BE3
:203200004FF0010801E04FF000089D4A136843F480731360FDF724FE0646994D04E0FDF71F
:203220001FFE801B022840D82B6813F4807FF6D0002F3DD1914BD3F8903013F440732AD0DD
:20324000A26D934212D08D4BD3F8902022F44072D3F8901041F48031C3F89010D3F8901076
:2032600021F48031C3F89010C3F8902012F0010F11D0FDF7F5FD8146804D41F2883605E07F
:20328000FDF7EEFDC9EB0000B04210D8D5F8903013F0020FF4D07949D1F8903023F4407248
:2032A000A36D1343C1F8903002E0032700E00327B8F1000F04D0714A936D23F080539365F4
:2032C000236813F0010F08D06C49D1F8883023F00302236A1343C1F88830236813F0020F37
:2032E00008D06649D1F8883023F00C02636A1343C1F88830236813F0040F08D05F49D1F827
:20330000883023F03002A36A1343C1F88830236813F0200F08D05949D1F8883023F440626B
:20332000E36A1343C1F88830236813F4007F08D05249D1F8883023F44022E36B1343C1F89E
:203340008830236813F4806F08D04C49D1F8883023F44012236C1343C1F88830236813F0F9
:20336000400F08D04549D1F8883023F44052236B1343C1F88830236813F0800F08D03F499C
:20338000D1F8883023F44042636B1343C1F88830236813F4807F08D03849D1F8883023F4FC
:2033A0004032A36B1343C1F88830236813F4002F1BD03249D1F8883023F04062A36C134304
:2033C000C1F88830A36CB3F1006F04D1CB6843F48013CB6009E0B3F1806F06D10121201DAB
:2033E000FFF714FE002818BF0746236813F4802F1BD02249D1F8883023F04062E36C134307
:20340000C1F88830E36CB3F1006F04D1CB6843F48013CB6009E0B3F1806F06D10121201D2A
:20342000FFF7F4FD002818BF0746236813F4804F13D01249D1F8883023F04052236D1343AE
:20344000C1F88830236DB3F1805F06D10221201DFFF7DCFD002818BF0746236813F4004FB5
:2034600008D00649D1F8883023F08042636D1343C1F88830384603B0BDE8F083001002409D
:2034800000700040F8B507460E4615461C4634E0B4F1FF3F32D0FDF7E3FC069BC01A844264
:2034A00000D954BB3A68536823F0E00353607B68B3F5827F0BD1BB68B3F5004F02D0B3F522
:2034C000806F04D13A68136823F040031360BB6AB3F5005F09D13A68136823F40053136042
:2034E0003A68136843F400531360012387F85D30002387F85C300320F8BD3A68936836EABF
:2035000003030CBF01230023AB42C1D10020F8BDF8B507460C4615461E4639E0B4F5C06F43
:2035200001D105B9137BB6F1FF3F32D0FDF798FC069BC01A864200D956BB3A68536823F061
:20354000E00353607B68B3F5827F0BD1BB68B3F5004F02D0B3F5806F04D13A68136823F0E5
:2035600040031360BB6AB3F5005F09D13A68136823F4005313603A68136843F4005313607B
:20358000012387F85D30002387F85C300320F8BD3A6893682340AB42C0D10020F8BD00BFE3
:2035A00070B582B004460D46164600920B4600224FF4C051FFF7ACFF28B1236E43F0200301
:2035C000236603231CE000962B46002280212046FFF758FF28B1236E43F020032366032354
:2035E0000EE000962B4600224FF4C0612046FFF78FFF034620B1236E43F0200323660323B6
:20360000184602B070BD00BF70B582B004460D4616464368B3F5827F0BD18368B3F5004F4C
:2036200002D0B3F5806F04D12268136823F04003136000962B46002280212046FFF722FF37
:20364000034628B1236E43F020032366032319E06268B2F5827F15D1A268B2F5004F02D08F
:20366000B2F5806F0ED100962B4600224FF4C0612046FFF74DFF034620B1236E43F020039F
:2036800023660323184602B070BD00BF00285BD010B504460023836290F85D3013F0FF0FEF
:2036A00004D1002380F85C3004F0E0FB022384F85D302268136823F040031360E368B3F550
:2036C000E06F43D8B3F5706F44D0B3F5E06F47D04FF4805000E000200022A262226B72B9E6
:2036E000B3F5E06F09D903E04FF4805000E000200223236303E04FF4805001232363216827
:203700006268A3681A4323691A4363691A43E3691A43236A1343A26A1343A26902F4007204
:203720001A430A602168636A626B1343E2681343628B02F00402134303434B6000202066D7
:20374000012384F85D3010BD01207047B3F5706FC1D10BE0236B002BC6D04FF48050CEE77C
:20376000236B002BC7D04FF48050C8E7236B002BBDD00020C3E700BF90F85C30012B45D013
:20378000012380F85C30002934D0002A34D090F85D30DBB2012B31D1032380F85D30002388
:2037A000036681638287C2870364A0F84430A0F84630C364C368B3F5E06F8CBF144B154B96
:2037C00003658368B3F5004F04D10268136843F4804313600268536843F0A003536003685F
:2037E0001A6812F0400F0BD11A6842F040021A60002306E0012304E0012302E0022300E08E
:203800000023002280F85C2018467047022070475D3A0008393A000830B490F85C40012C32
:2038200064D0012480F85C4090F85D40E4B2012C08D04568B5F5827F46D18568002D45D1BC
:20384000042C45D1002945D0002A45D0002B45D090F85D40E4B2042C1CBF052480F85D4061
:203860000024046681638387C3870264A0F84430A0F84630C268B2F5E06F04D91D4BC36476
:203880001D4B036505E01D4AC2641D4A0265012B05D90268536823F48053536004E00268FE
:2038A000536843F4805353600268536843F0E003536003681A6812F0400F11D11A6842F0CE
:2038C00040021A6000230CE002230AE0022308E0022306E0012304E0012302E0012300E0E4
:2038E0000023002280F85C20184600E0022030BC704700BF7D3C0008453C0008D13B00086F
:20390000793B000810B584685CB94368B3F5827F07D11346042280F85D200A46FFF77CFFC4
:2039200010BD90F85C40012C51D0012380F85C3090F85D40E4B29C423DD100293DD0002A19
:203940003DD0042380F85D30002303660164A0F84420A0F8462083638387C3870365C36876
:20396000B3F5E06F07D90268536823F480535360184BC36406E00268536843F4805353605C
:20398000154BC3648368B3F5004F04D10268136823F4804313600268536843F06003536049
:2039A00003681A6812F0400F0BD11A6842F040021A60002306E0022304E0012302E0012341
:2039C00000E00023002280F85C20184610BD022010BD00BFED3A0008C13A0008704700BF4D
:2039E00010B582B00446FDF73BFA2268536823F0A0035360024664212046FFF7D1FD18B1EF
:203A0000236E43F020032366A36833B901932368DA6801929B680193019B012384F85D30EB
:203A2000236E1BB12046FFF7D9FF02E0204603F073FD02B010BD00BF08B50368826B12786D
:203A40001A73836B01338363C38F013B9BB2C387C38F9BB20BB9FFF7C3FF08BD08B50368A4
:203A6000826B1288DA60836B02338363C38F013B9BB2C387C38F9BB20BB9FFF7B1FF08BD89
:203A800010B504460268536823F060035360FDF7E7F9024664212046FFF7B6FD18B1236EBF
:203AA00043F020032366012384F85D30236E1BB9204603F03DFD10BD2046FFF78FFF10BD7E
:203AC00008B5036C0268127B1A70036C01330364B0F84630013B9BB2A0F84630B0F846305C
:203AE0009BB20BB9FFF7CCFF08BD00BF08B5036C0268D2681A80036C02330364B0F84630DD
:203B0000013B9BB2A0F84630B0F846309BB20BB9FFF7B6FF08BD00BF10B50446FDF7A0F914
:203B20002268536823F020035360024664212046FFF736FD18B1236E43F020032366236E31
:203B400093B994F85D30DBB2042B06D1012384F85D30204603F0ECFC10BD012384F85D3005
:203B6000204603F0F1FC10BD012384F85D302046FFF734FF10BD00BF08B5C38F9BB2012B62
:203B80000BD90368826B1288DA60836B02338363C38F023B9BB2C3870AE00368826B12781A
:203BA0001A73836B01338363C38F013B9BB2C387C38F9BB253B90268536823F08003536032
:203BC000B0F846309BB20BB9FFF7A6FF08BD00BF08B5B0F846309BB2012B17D9036C02687A
:203BE000D2681A80036C02330364B0F84630023B9BB2A0F84630B0F846309BB2012B12D1B6
:203C00000268536843F4805353600CE0036C0268127B1A70036C01330364B0F84630013B82
:203C20009BB2A0F84630B0F846309BB24BB90268536823F060035360C38F9BB20BB9FFF713
:203C40006BFF08BD08B50368826B1288DA60836B02338363C38F013B9BB2C387C38F9BB27F
:203C600053B90268536823F080035360B0F846309BB20BB9FFF750FF08BD00BF08B5036CA6
:203C80000268D2681A80036C02330364B0F84630013B9BB2A0F84630B0F846309BB24BB9B7
:203CA0000268536823F040035360C38F9BB20BB9FFF732FF08BD00BF10B584B0044602681B
:203CC0005168936803F04100012806D111F0400F03D0E36C2046984776E013F0020F06D005
:203CE00011F0800F03D0236D204698476CE013F4B07F69D011F0200F66D013F0400F18D031
:203D000094F85D00C0B203280BD0206E40F00400206600200090D068009090680090009862
:203D200007E000230193D368019393680193019B4AE013F0200F0CD0206E40F0010020666E
:203D40000020029090680290106820F040001060029A13F4807F09D0236E43F0080323661C
:203D60000023039323689B680393039B236E5BB32268536823F0E0035360012384F85D300E
:203D800011F0030F1DD02268536823F003035360A36D4BB10D4A9A63A06DFEF707F818B1E8
:203DA000236E43F040032366636D6BB1074A9A63606DFDF7FBFF38B1236E43F04003236605
:203DC00002E02046FFF70AFE04B010BDD13D000808B5806A0023A0F84630C387FFF7FEFDF3
:203DE00008BD00BF70B4036A23F001030362026A4568836923F4803323F073030C68234300
:203E000022F002048A682243174CA04214D004F5A054A0421ED004F58064A04206D112E0C5
:203E200025F440754E698C6934432543456083614B684363026214E022F00802CC6822433A
:203E400022F00402ECE722F00802CC68224322F00402E5E722F00802CC68224322F0040211
:203E6000DEE770BC704700BF002C014030B4036A23F480730362036A4468C26922F48032A2
:203E800022F073020D682A4323F400738D6843EA0523114DA84218D123F40063CD6843EAD8
:203EA000052323F4806302E00C4DA84207D124F440544D6944EA05148D6944EA0514446059
:203EC000C2614A68C263036203E0054DA842EBD1EDE730BC704700BF002C01400044014080
:203EE0000040014030B4036A23F480530362026A4468C36923F0807323F4E6430D6843EA75
:203F0000052322F400528D6842EA05320B4DA84207D005F5A055A84203D005F58065A8422B
:203F200004D124F480444D6944EA85144460C3614B680364026230BC704700BF002C01403E
:203F400030B4036A23F480330362036A4568426D22F4803222F070020C68224323F40033A9
:203F60008C6843EA04430B4CA04207D004F5A054A04203D004F58064A04204D125F48035C5
:203F80004C6945EA0425456042654A688265036230BC7047002C014030B4036A23F48013BF
:203FA0000362026A4468436D23F0807323F4E0430D6843EA052322F400128D6842EA05522A
:203FC0000B4DA84207D005F5A055A84203D005F58065A84204D124F480244D6944EA852435
:203FE000446043654B68C365026230BC704700BF002C0140022380F83D3002689168084BA7
:204000000B40062B06D0B3F5803F03D0136843F001031360012380F83D300020704700BF50
:2040200007000100022380F83D300368196A41F21112114208D1196A40F24442114203D19C
:204040001A6822F001021A60012380F83D300020704700BF704700BF704700BF03682E4AE1
:20406000904232D0B0F1804F34D002F5A052904243D002F5806290421DD130E023F44073B7
:20408000CA68134323F080034A69134303608B68C3620B688362204B984207D003F5A0531F
:2040A000984203D003F58063984201D10B69036301234361704723F080034A691343036071
:2040C0008B68C3620B688362F2E723F070034A681343D3E723F070034A681343CEE723F4F5
:2040E0004073CA68134323F080034A69134303608B68C3620B688362D8E723F44073CA6858
:20410000134323F080034A69134303608B68C3620B688362CAE700BF002C0140B8B110B5CC
:20412000044690F83D3013F0FF0F04D1002380F83C3003F0D5FE022384F83D30211D2068B9
:20414000FFF78CFF012384F83D30002010BD0120704700BFB8B110B5044690F83D3013F0DD
:20416000FF0F04D1002380F83C30FFF773FF022384F83D30211D2068FFF770FF012384F814
:204180003D30002010BD0120704700BF08B338B504460D4690F83D3013F0FF0F04D10023EB
:2041A00080F83C30FFF758FF022384F83D30211D2068FFF753FF2268136823F0080313601C
:2041C0002368196829431960012384F83D30002038BD0120704700BF30B4036A23F01003BE
:2041E0000362036A4468826922F0807222F4E6420D6842EA052223F020038D6843EA0513DC
:20420000104DA84218D123F08003CD6843EA051323F0400302E00C4DA84207D124F440644F
:204220004D6944EA85048D6944EA8504446082614A688263036203E0044DA842EBD1EDE733
:2042400030BC7047002C0140004401400040014090F83C30012B34D010B50446012380F879
:204260003C30022380F83D30142A23D8DFE802F00B2222220F2222221322222217222222FA
:204280001B2222221F000068FFF7ACFD12E00068FFF7A2FF0EE00068FFF7E8FD0AE0006803
:2042A000FFF720FE06E00068FFF74AFE02E00068FFF772FE012384F83D30002084F83C00C9
:2042C00010BD0220704700BF10B4846824F47F4421430A4342EA032383605DF8044B7047AD
:2042E00090F83C30012B00F09E8070B50446012380F83C30022380F83D30026890684B4B17
:20430000034093600B68402B64D00AD8102B7BD002D8002B78D07FE0202B75D0302B73D013
:204320007AE0602B3BD002D8502B1ED074E0702B03D0B3F5005F0CD06EE0CB684A68896881
:204340002068FFF7C1FF2268936843F07703936062E0CB684A6889682068FFF7B5FF226826
:20436000936843F48043936056E023684D68CE681A6A186A20F001001862996921F0F00114
:2043800041EA061122F00A022A4399611A622268936823F0700343F0570393603CE02368A8
:2043A0004D68CE68186A20F01000186299691A6A21F4704141EA063122F0A00242EA051251
:2043C00099611A622268936823F0700343F06703936021E023684D68CE681A6A186A20F03F
:2043E00001001862996921F0F00141EA061122F00A022A4399611A622268936823F07003F0
:2044000043F04703936007E021688A6822F0700243F0070313438B60012384F83D3000209B
:2044200084F83C0070BD0220704700BF8800FEFF90F83C30012B2DD030B4012380F83C3071
:20444000022380F83D3003685A689D68134CA34203D122F470024C68224322F070020C686F
:2044600022435A6003680D4A934206D0B3F1804F03D002F5A052934204D125F080058A684B
:2044800015439D60012380F83D30002380F83C30184601E00220704730BC7047002C01408F
:2044A0000268136823F4907313600268936823F0010393602023836700230366704700BFEC
:2044C000436F212B1BD1B0F852309BB253B90268136823F0800313600268136843F0400326
:2044E000136070470368C26C12781A85C36C0133C364B0F85230013B9BB2A0F852307047C2
:20450000436F212B1DD1B0F852309BB253B90268136823F0800313600268136843F04003E3
:20452000136070470268C36C1B88C3F308031385C36C0233C364B0F85230013B9BB2A0F8E6
:2045400052307047436F202B27D141B34AB390F87030012B27D0012380F87030C164A0F8F8
:204560005020A0F8522000234366C367212343678368B3F5805F04D1036913B90B4B43665F
:2045800001E00B4B4366002380F8703001680A6842F080020A6018467047022070470120F8
:2045A0007047012070470220704700BF01450008C144000838B504460268D369116890682B
:2045C00040F60F052B420ED113F0200F00F08E8011F0200F00F08A80236E002B00F0AF8010
:2045E0002046984738BD10F0010502D111F4907F7CD013F0010F07D011F4807F04D0012065
:204600001062E26F0243E26713F0020F0BD0ADB1226802201062E26F42F00402E26713F009
:20462000040F04D10AE013F0040F07D035B1226804201062E26F42F00202E26713F0080FCB
:2046400009D011F0200F00D12DB1226808201062E26F0243E26713F4006F0AD011F0806F5F
:2046600007D022684FF400601062E26F42F02002E267E26F002A62D013F0200F06D011F020
:20468000200F03D0236E0BB120469847E26F23689B6813F0400F02D112F0280F20D02046F3
:2046A000FFF7FEFE23689A6812F0400F14D09A6822F040029A60E36E53B1214A9A63E06EEB
:2046C000FDF774FB00283AD0E06E836B984738BD204602F0D9FF38BD204602F0D5FF38BDEF
:2046E000204602F0D1FF0023E36738BD13F4801F09D010F4800F06D04FF480131362204697
:2047000000F094FB38BD13F0800F07D011F0800F04D0636E9BB12046984738BD13F0400FAF
:204720000DD011F0400F0AD0136823F0400313602023636700236366204602F001F938BDEE
:204740004547000808B5806A0023A0F85A30A0F8523002F099FF08BD2DE9F048044601686F
:204760000868A26823691A4363691A43E3691A43A44B034013430B6021684B6823F440522C
:20478000E36813434B60A36922689F498A421CBF216A0B43916821F430610B439360236864
:2047A0009A4A934211D102F55842D2F8882002F00302032A07D8DFE812F0590004009B0196
:2047C0009D010425DBE01025D9E0914A93421CD102F5E632D2F8882002F00C020C2A12D82B
:2047E000DFE812F046001100110011000D001100110011008A011100110011000F00042541
:20480000BDE00825BBE01025B9E0824A934216D102F5E432D2F8882002F03002102A08D028
:2048200001D83AB309E0202A00F06881302A02D003E00425A3E00825A1E010259FE0724ACD
:20484000934240F05D8102F5C832D2F8882002F44062B2F5806F24D001D86AB138E1B2F53C
:20486000006F22D0B2F5406F25D031E1012504E0002502E0002500E00025634A93427ED16E
:20488000082D00F22781DFE815F009002501130025010C002501250125011A00FEF792FBFB
:2048A00007E0FDF71DFF042503E002255A4800E0594830B910E14FF40040082501E04FF4FD
:2048C0000040626802EB4203834200F20781B0EB023F00F20581082D46D8DFE805F00545B0
:2048E0001845254545453800FEF76CFB62680025070E060250082B4616EB000B47F1000CAE
:2049000058466146FCF7DEF8034628462EE0560800252B4641480021801941F10001FCF767
:20492000D1F80346284621E0FDF7DAFE62680025070E060250082B4616EB000B47F1000C05
:2049400058466146FCF7BEF8034628460EE05008002100252B4610F5000041F10001FCF78A
:20496000B1F80346284601E001200023A3F540712B4A914200F2B6802268D360C2E0E3694E
:20498000B3F5004F5ED1082D4CD8DFE805F005101B4B264B4B4B3100FEF714FB6268530800
:2049A00003EB4000B0FBF2F292B200203CE0FEF71BFB6268530803EB4000B0FBF2F292B289
:2049C000002031E06268510801F1F47303F59043B3FBF2F292B2002026E0FDF781FE626826
:2049E000530803EB4000B0FBF2F292B200201BE06268530803F58033B3FBF2F292B200207A
:204A000012E000BFF369FFEF008000400038014000440040004800400024F400000024F426
:204A2000FFFC0F0001200022A2F110014FF6EF73994259D822F00F012368C2F342020A43DF
:204A4000DA605FE0082D38D8DFE805F0050F1937243737372E00FEF7B5FA626800EB5200D6
:204A6000B0FBF2F292B2002029E0FEF7BDFA626800EB5200B0FBF2F292B200201FE06268CB
:204A8000510801F5740303F51053B3FBF2F292B2002014E0FDF724FE626800EB5200B0FB43
:204AA000F2F292B200200AE06268530803F50043B3FBF2F292B2002001E001200022A2F1B7
:204AC00010014FF6EF73994210D82368DA6019E0012017E0012015E0002013E0012011E04A
:204AE00001200FE001200DE001200BE0012009E0022544E7082542E7022540E702253EE740
:204B000010253CE7002222666266BDE8F08800BF436A13F0010F06D001684B6823F40032F4
:204B2000836A13434B60436A13F0020F06D001684B6823F48032C36A13434B60436A13F02D
:204B4000040F06D001684B6823F48022036B13434B60436A13F0080F06D001684B6823F458
:204B60000042436B13434B60436A13F0100F06D001688B6823F48052836B13438B60436A7E
:204B800013F0200F06D001688B6823F40052C36B13438B60436A13F0400F11D001684B68DD
:204BA00023F48012036C13434B60036CB3F5801F06D101684B6823F4C002436C13434B60AA
:204BC000436A13F0800F06D001684B6823F40022836C13434B6070472DE9F04107460E46DC
:204BE00015469846069C3CE0B4F1FF3F3AD0FCF737F9C8EB0000844200D394B93A681368F8
:204C000023F4D07313603A68936823F00103936020237B67BB67002387F870300320BDE8CF
:204C2000F0813B681A6812F0040F1AD0DA6912F4006F16D04FF400621A623A68136823F4EC
:204C4000D07313603A68936823F00103936020237B67BB67FB67002387F870300320BDE844
:204C6000F0813A68D36936EA03030CBF01230023AB42B9D00020BDE8F08100BF2DE9F047F5
:204C800082B01E46436F202B5CD104460D469046002959D0002A59D090F87030012B57D0C1
:204CA000012380F870300023C36721234367FCF7D7F80746A4F85080A4F85280A368B3F5E1
:204CC000805F04D123692BB9AA46002504E04FF0000A01E04FF0000A002384F87030B4F859
:204CE00052309BB213B34FF000094FF0800800963B464A4641462046FFF76EFF50BB35B920
:204D000022683AF8023BC3F30803138503E0236815F8012B1A85B4F85230013B9BB2A4F8A8
:204D20005230B4F852309BB2002BE0D100963B46002240212046FFF74FFF034660B92022B2
:204D400062670AE0022308E0012306E0012304E0022302E0032300E00323184602B0BDE899
:204D6000F08700BF30B583B004460023C367FCF777F8054623681B6813F0080F0AD06FF040
:204D80007E430093034600224FF400112046FFF723FFB0B923681B6813F0040F0AD06FF0BC
:204DA0007E4300932B4600224FF480012046FFF713FF40B920236367A367002084F87000BE
:204DC00002E0032000E0032003B030BD58B310B50446436F1BB980F8703003F093F82423AE
:204DE00063672268136823F0010313602046FFF7B3FC012819D0636A13B12046FFF788FECA
:204E00002268536823F4904353602268936823F02A0393602268136843F0010313602046E3
:204E2000FFF7A0FF10BD0120704710BD704700BF2DE9F843B84B1A68B84B1B689A4240F28B
:204E4000F580B54B1B68FA33B44A1360B448FCF7F1FB08B102F064FC0A220221B048FCF79C
:204E6000E7F808B102F05CFCAE4B1B78012B40F0DD80AD4CE588ADB2DFF8E882B8F8003025
:204E800040F6B83000FB03F0FBF74CFB06460F462846FBF757FB02460B4630463946FBF7FA
:204EA000E1FCFBF7EFFD80B2A04B18802588ADB2FBF748FB06460F462846FBF733FB32469A
:204EC0003B46FBF7A5FB8CA3D3E90023FBF7CAFC8BA3D3E90023FBF79BFB0022944BFBF771
:204EE000C1FCFBF7CFFD934B1880608880B2FBF719FB32463B46FBF78BFB7FA3D3E900232F
:204F0000FBF7B0FC80A3D3E90023FBF781FB80A3D3E90023FBF7A6FCFBF7B4FD864B1880E1
:204F2000A588ADB2E488A4B2B8F80000FBF7FAFA804689462846FBF7F5FA02460B4640468A
:204F40004946FBF765FB804689462046FBF7FAFA02460B4640464946FBF784FC80468946DA
:204F6000764C2088FBF7DEFA02460B4640464946FBF79AF90022724BFBF74AFB804689461F
:204F8000704B18882388C01AFBF7DCFA02460B4640464946FBF766FC04460D466A4BC3E969
:204FA00000456A4B1888E0B1FBF7CCFA0022684BFBF72EFB804689460022664B20462946E1
:204FC000FBF774F90022644BFBF722FB02460B4640464946FBF76AF9FBF72CFD5B4B188036
:204FE00008E000225B4B2046FBF760F9FBF74AFD564B18804C4BD88880B2FBF793FA3246BE
:205000003B46FBF705FB3CA3D3E90023FBF72AFCFBF738FD514B18800022424B1A70504B18
:205020001B780BB1013BDBB24D4A13704C4B1B78002B5FD1022001F047F868B93D4B1B881B
:20504000A3F5A843603B9BB2B3F5965F12D90121022001F031F80DE0364B1B88A3F5AC4367
:20506000553B9BB240F6D662934203D80021022001F022F8012001F027F860B92E4B1B8881
:20508000A3F63F439BB2B3F5A57F0FD90121084601F012F80AE0284B1B88A3F681439BB2DF
:2050A000C62B03D80021012001F006F8052001F00BF840B9254B1B883C2B0CD9012105203B
:2050C00000F0FAFF07E0214B1B88362B03D80021052000F0F1FF1D4BB3F9001011F1190F41
:2050E00004DB3C29D4BF0021012100E00121052000F0E2FFBDE8F8830000000000FEAF4091
:205100000000000000AFC44000000000006AD84000000000004CCD40EC050020F8000020D8
:20512000AC060020EC000020D8070020F000002000708240F2000020EE000020A875FF1FF5
:2051400000005440CA75FF1FF0050020FC0000200000E83F00003E400000D03FF400002065
:2051600028000020AA75FF1F034B1B7813B9034B188870470020704728000020F200002027
:20518000034B1B7813B9034B188870470020704728000020EE000020034B1B7813B9034B95
:2051A000188870470020704728000020FC000020024B1878B0FA80F040097047280000201E
:2051C0000122014B1A707047EC000020704700BF08B502F0A5FA08BD8268C3689A422FBFAB
:2051E000D01A40688018C01A704700BF10B54468FFF7F2FF013C201A10BD00BF70B58368CA
:205200005D1C8288AA4298BF0025C26895420BD0044631B100692668024600FB036002F00C
:20522000EEFFA560012070BD002070BD38B5C46883689C4212D00B46054639B101690068C5
:205240000A4601FB0401184602F0D9FF631C6A68934228BF0023EB60012038BD002038BD2F
:2052600010B50B46C468826894420AD089B1016900680A4601FB0401184602F0C0FF0120C5
:2052800010BD41B102690021184602F0C3FF002010BD012010BD002010BD00BF20B129B17F
:2052A000C3680B6001207047002070470020704790B1024691B10B688068834210D010B443
:2052C0001069146800FB034001335468B3FBF4F204FB12330B6005E00020704700207047D5
:2052E000002070475DF8044B704700BF70B469B14118FF242246084E084D10F8013B534019
:20530000F25C6240EC5C8142F7D101E0FF24224642EA042070BC7047589300085892000846
:20532000836F222B0DD100B583B003689A8C90F85C30134002A901F8013D0748FFF75EFFEC
:2053400006E00268138B9BB243F008031383704703B05DF804FB00BF2C0000200022014B07
:205360001A707047980100202DE9F04F83B006468A46144602AF4FF0FF3347F8043DDFF8BC
:205380009480DFF894B0256806EB050939464046FFF74CFFA8B301980D2801D00A2804D10B
:2053A000002389F80030012031E01B280BD152460021304602F02EFF1B2333700023737093
:2053C0000120206023E008281DD07F2808D11AE0013B23600022F254584602F023FF0BE0CE
:2053E0000AF1FF3322689A4206D27055236801332360C0B202F02EFF019B002BC3DA002026
:2054000005E0002003E02368002BBCD0E0E703B0BDE8F08F2C0000205894000808B5802225
:205420000021034802F0F6FE0022024B1A6008BD1801002014010020836F202B49D190F81F
:205440007030012B47D0012380F870308368B3F5805F0AD1036923B940F2FF13A0F85C3030
:205460001EE0FF23A0F85C301AE04BB903691BB9FF23A0F85C3013E07F23A0F85C300FE0BC
:20548000B3F1805F09D103691BB97F23A0F85C3006E03F23A0F85C3002E00023A0F85C3014
:2054A0000023C3672222826701688A6842F480528A6001688A6842F001028A60074A0266F2
:2054C00080F8703001680A6842F490720A6018467047022070470220704700BF2153000835
:2054E00008B50348FFF7A8FFB0FA80F0400908BDF80500202DE9F04F87B0914B1B78002B9C
:2055000040F05E818F48FFF771FE18B1FFF7E8FF8B4B18708C4B1B78012B2BD013B1022BBA
:205520000CD058E1864B1B7813B10122864B1A70002204218548FCF7B3FF4CE1844C25686D
:2055400001F0CEF82146FFF7B3FE18B901227E4B1A700FE002784378002B14BF43232D2367
:205560008178002914BF4D212D2100912946794802F058FE784C224680217848FFF7F4FEFC
:205580002368002B00F02781744B1C78FFF746FFA4F13103452B00F2B980DFE803F0A9A9BF
:2055A000A9A9A9A9A9A9A9B7B7B7B7B7B7B7B7B7B7B7B7B7B7B7B7B7B7B796B7B7B7B72B1A
:2055C0004A23B72EB7B7B7B7A0B7A4B7B7B7B0B0B0B0B0B0B0B7B7B7B7B796B7B7B7B72B7D
:2055E0004A23B72E002204215848FCF759FF01F0E9F8A0E001F054FE9DE0594802F012FE72
:20560000584802F00FFE584802F00CFE574802F009FE574B1B88574A128857490988574867
:2056200000880090564802F0FDFD564802F0FAFD81E04B4802F0F6FD534802F0F3FD534850
:2056400002F0F0FD524802F0EDFD524C01212046FCF720FF054602212046FCF71BFF064690
:2056600004212046FCF716FF07464FF400612046FCF710FF80464FF480512046FCF70AFF02
:2056800081464FF400512046FCF704FF82464FF480412046FCF7FEFE83464FF4004120467F
:2056A000FCF7F8FE0490CDF80CB0CDF808A0CDF80490CDF800803B4632462946364802F009
:2056C000B1FD364802F0AEFD35E001F009F82049FFF7E4FD78B302221B4B1A702BE0002050
:2056E00001F038FD27E04FF6FF7001F033FD22E0313C0120A04080B201F02CFD1BE0583C5D
:205700000120A04080B201F025FD14E0244802F089FD244802F086FD234802F083FD234842
:2057200002F080FD224802F07DFD224802F07AFD214802F077FD214802F074FD4BE000BFCC
:20574000980100202C00002010010020000C00489C0100205C94000814010020180100209C
:2057600098980008789400080495000840950008F4000020EE000020F2000020FC0000200F
:20578000CC9500080496000890960008F8960008309700080004004898970008D897000871
:2057A0004098000854980008689800088C9800089C980008AC980008CC98000850990008FC
:2057C000064B1B78012B3FF4D5AE002B3FF4ADAE022B3FF4B3AE07B0BDE8F08F100100207D
:2057E00008B501F005FFC043C0B200F00703144AD25C144B1A7010F0800F0EBF4FF416520C
:205800004FF496420F4B5A8000F06003402B14BF012202220B4B5A7108220A4B9A7110F0B6
:20582000200F02D100221A7108BD10F0400F0CBF01220222034B1A710922024B9A7108BD72
:2058400040000020A001002008B5204B1B68204A92689B1A4EF66022934202D900221C4B64
:20586000DA711A4B1B681B4A92689B1A4EF66022934202D90022174B9A73164B1B7BA3B18F
:20588000124B1B68134A12689B1AB3F57A7F0CD9BFF34F8F1049CA6802F4E0620F4B134313
:2058A000CB60BFF34F8F00BFFDE70A4B5B7B63B1064B1B68074A52689B1AB3F57A7F04D939
:2058C00000F062FB0022034B5A7308BDEC050020A0010020AC01002000ED00E00400FA050A
:2058E000014B1878704700BFA0010020014B5888704700BFA0010020034B5888B0F5964F7A
:2059000014BF002001207047A0010020014B1879704700BFA0010020014B5879704700BF54
:20592000A0010020014B9879704700BFA0010020044B1B79002B14BF0A200920014B5B79BE
:2059400018447047A001002008B500F0E5FA08BD08B5064BDB793BB1054B1A68034B9A60BA
:2059600000F0E6FA002008BD022008BDA0010020EC05002008B500F0EBFA08BD08B5064B54
:20598000DB793BB1054B1A68034B9A6000F0ECFA002008BD022008BDA0010020EC05002039
:2059A000014BD879704700BFA001002040F2D24398420CBF01220022034BDA71034B1A6879
:2059C000014B9A6000207047A0010020EC050020012809D8054B003018BF01209873044AFD
:2059E00012689A600020704703207047AC010020EC050020014B987B704700BFAC01002002
:205A000001280ED8094B9B7B6BB110B504460120FFF7DEFF201C18BF0120044BD873002000
:205A200010BD032070470320704700BFAC01002001280ED8094B9B7B6BB110B50446012094
:205A4000FFF7C6FF201C18BF0120044B1874002010BD032070470320704700BFAC0100204F
:205A600001280ED8094B9B7B6BB110B504460120FFF7AEFF201C18BF0120044B587400204F
:205A800010BD032070470320704700BFAC010020014BD87B704700BFAC010020014B187C37
:205AA000704700BFAC010020014B587C704700BFAC01002008B501F09BFDC043C0B208BDC0
:205AC000012070470020704706207047012809D8054B003018BF01201873044A12681A60EB
:205AE0000020704703207047AC010020EC050020014B187B704700BFAC010020012809D8EB
:205B0000054B003018BF01205873044A12685A600020704703207047AC010020EC05002031
:205B2000014B587B704700BFAC0100202DE9F0478246884616465E4C00224FF400712046DE
:205B4000FCF7AEFC032001F0B5FD00224FF480712046FCF7A5FC012001F0ACFD01224FF471
:205B600000712046FCF79CFC032001F0A3FD00224FF400712046FCF793FC032001F09AFDA6
:205B800001224FF480712046FCF78AFC012001F091FD00224FF480712046FCF781FC0120E2
:205BA00001F088FDBAF1000F19D00024DFF800914FF400770325012239464846FCF770FCCF
:205BC000284601F077FD002239464846FCF768FC284601F06FFD0134E4B2A245EBD1344CB3
:205BE00001224FF480712046FCF75AFC012001F061FD00224FF480712046FCF751FC012012
:205C000001F058FDB8F1000F19D00024DFF8A0904FF400770325012239464846FCF740FC31
:205C2000284601F047FD002239464846FCF738FC284601F03FFD0134E4B2A045EBD11C4CFC
:205C400001224FF480712046FCF72AFC012001F031FD00224FF480712046FCF721FC012041
:205C600001F028FDCEB10024DFF844804FF400770325012239464046FCF712FC284601F066
:205C800019FD002239464046FCF70AFC284601F011FD0134E4B2A642EBD101224FF480719B
:205CA0000348FCF7FDFB012001F004FDBDE8F087000400482DE9F84381468846294C0022B6
:205CC0004FF480712046FCF7EBFB012001F0F2FC00224FF400712046FCF7E2FB022001F032
:205CE000E9FCB8F1000F29D12EE009EB080313F8012C224102F0010204214FF09040FCF749
:205D0000CFFB384601F0D6FC3A4629463046FCF7C7FB032001F0CEFC002229463046FCF786
:205D2000BFFB022001F0C6FC013CB4F1FF3FDCD108F1FF3818F0FF0802D105E00127094E91
:205D400007244FF40075D0E7012001F0B3FC01224FF480710348FCF7A3FB012001F0AAFCFD
:205D6000BDE8F883000400482DE9F84381468846032202210846FFF7D9FE00224FF4807118
:205D80002348FCF78DFB012001F094FCB8F1000F29D12EE009EB080313F8012C224102F02F
:205DA000010204214FF09040FCF77AFB384601F081FC3A4629463046FCF772FB032001F07F
:205DC00079FC002229463046FCF76AFB022001F071FC013CB4F1FF3FDCD108F1FF3818F06A
:205DE000FF0802D105E00127094E07244FF40075D0E7012001F05EFC01224FF480710448BC
:205E0000FCF74EFB012001F055FCBDE8F88300BF000400482DE9F04782468946032202218C
:205E20000420FFF783FEB9F1000F27D1BDE8F08780212846FCF72EFB3378003018BF0120FC
:205E400040EA43003070012239462846FCF728FB404601F02FFC002239462846FCF720FB50
:205E6000404601F027FC013C14F0FF04E0D109F1FF3919F0FF0904D1BDE8F087044D4FF0CF
:205E80000308082409F1FF3656444FF40077CFE7000400482DE9F047824689460322042118
:205EA0000846FFF743FEB9F1000F27D1BDE8F08780212846FCF7EEFA3378003018BF0120D3
:205EC00040EA43003070012239462846FCF7E8FA404601F0EFFB002239462846FCF7E0FA93
:205EE000404601F0E7FB013C14F0FF04E0D109F1FF3919F0FF0904D1BDE8F087044D4FF090
:205F00000308082409F1FF3656444FF40077CFE700040048704700BF034B1B78012B86BFFD
:205F2000024B588800207047C0010020CC010020044B1B78012B04D9034B58800122034B0D
:205F40001A707047C0010020CC010020C8010020034B1B78012B86BF024B988800207047B3
:205F6000C0010020CC010020044B1B78012B04D9034B98800122034B1A707047C00100206F
:205F8000CC010020C801002008B50120FFF7ECFF0020FFF7CDFF08BD10B5374B1B78052BBB
:205FA00068D8DFE803F0030D252D414E082300221146324801F04CFA01222F4B1A7010BDAD
:205FC00001F012FA002855D02C4C06212046FFF78DF9E38880B2834201D0FFF7D5FF284B86
:205FE0001B78002B14BF03220222234B1A7010BD234B1B78002B3DD003221F4B1A7010BDE3
:2060000001F0F2F9002835D01C4C06212046FFF76DF9E080082300221146204601F0F8F9DA
:206020000422154B1A7010BD01F0DEF910B3082300221146134801F00BFA05220E4B1A70F9
:2060400010BD01F0D1F9A8B108220C490D4802F0C7F840B900230A4A13700B4A13600222FB
:20606000054B1A7010BD084A1368013313600222014B1A7010BD00BFC0010020CC010020B1
:20608000C8010020D4010020C4010020034A012303FA00F01388184310807047E0010020A1
:2060A000044A012303FA00F0138823EA00001080704700BFE001002008B511B1FFF7E6FF78
:2060C00008BDFFF7EDFF08BD034B1B8843FA00F000F00100704700BFE0010020014B1888E2
:2060E000704700BFE0010020024B1888B0FA80F040097047E0010020024B1888003018BF2D
:2061000001207047E001002008B5284B1B78012B24D013B1022B36D008BD254B1988254A87
:20612000254B002918BF13460F2914BF0022012201F58041C2F50062490320489847204B78
:2061400018601B4A138801339BB21380102B1ABF164B1A780122154B1A7008BD194B1A68F4
:20616000174B1B689A420AD10122174B1A70174B1A68174B1A6002220C4B1A7008BD0020CA
:20618000FFF784FF08BD114B1B68114A12689B1A4EF66022934202D80B4B1B7823B90023FB
:2061A000024A1370024A138008BD00BF48000020DC010020AD1A0008F51A000888060020B4
:2061C000E4010020FCFF0108DE010020EC050020E8010020014B1878704700BFDE0100204C
:2061E000024B1A68024B1A60704700BFEC0500204C00002010B5FFF7FDFBF8B1FFF748FC80
:206200002E4C021C18BF01224FF480612046FCF747F9FFF743FC021C18BF01224FF48051CE
:206220002046FCF73DF9FFF73FFC021C18BF01224FF400612046FCF733F910BD204B1B68A2
:20624000204A12689B1AB3F5FA7F08D91C4B1A681C4B1A604FF400611848FCF727F9184B5F
:206260001B68194A12689B1AF92B10D8144B1B68164A12689B1A4B2B16D9114B1A68134BEB
:206280001A604FF480610D48FCF710F90CE00C4B1B680E4A12689B1A4B2B05D901224FF408
:2062A00080610648FCF7FCF8FFF718FFC2B24FF480510248FCF7F4F810BD00BF000800482E
:2062C000EC050020F00100204C000020F401002070B5384B1B78042B4AD8DFE803F0030EC4
:2062E00021340E00344B1A68344B1A600122314B1A7000252E462A4649E02F4B1B682F4A70
:2063000012689B1AB3F5FA7F36D92B4B1A682B4B1A600222274B1A7000252E46012236E044
:20632000254B1B68254A12689B1AB3F5FA7F27D9214B1A68214B1A6003221E4B1A7000259A
:2063400001262A4623E01C4B1B681C4A12689B1AB3F5FA7F18D9184B1A68184B1A6004222A
:20636000144B1A700125164B1D70002632460EE000252E462A460AE000252E46012206E0FF
:20638000002501262A4602E00125002632460D4C4FF480612046FCF783F832464FF400612E
:2063A0002046FCF77DF82A464FF480512046FCF777F870BDF8010020EC050020FC0100204F
:2063C000EC01002000080048014B1878704700BFEC01002040F63603984268D027D840F24F
:2063E0005143984257D00BD840F24F43984250D0B0F58A6F7DD240F24D43984277D274E041
:2064000040F2544398424CD008D840F25243984243D040F25343984241D066E040F63403C3
:20642000984240D040F6350398423ED05DE040F6F123984247D015D840F6390398423CD05F
:2064400008D840F63703984233D040F63803984231D04AE040F63A03984230D0B0F52F6F09
:206460002FD042E040F6F423984232D008D840F6F223984229D040F6F323984227D034E0A3
:2064800041F20403984226D041F20503984224D02BE01A4B2EE01A4B2CE01A4B2AE01A4B26
:2064A00028E01A4B26E01A4B24E01A4B22E01A4B20E01A4B1EE01A4B1CE01A4B1AE01A4BAC
:2064C00018E01A4B16E01A4B14E01A4B12E01A4B10E01A4B0EE01A4B0CE01A4B0AE010B5AC
:2064E0000C4698472080002010BD02207047164B00E0164B0029F2D100207047C572000861
:20650000DD600008695100088151000899510008A1590008E1580008F95800081959000892
:206520000D5900084959000875590008F5590008915A00089D5A0008A95A0008B55A000803
:20654000F15A0008215B0008B5720008F960000808B5B0F52F6F2ED012D840F634039842A5
:2065600025D004D840F24D43984235D032E040F63903984232D040F63A03984219D029E00A
:2065800040F6F32398421CD008D840F6F123984213D040F6F223984211D01BE041F20403C7
:2065A000984210D041F2050398420ED012E00E4B15E00E4B13E00E4B11E00E4B0FE00E4BB7
:2065C0000DE00E4B0BE00E4B09E00E4B07E00888984708BD022008BD0B4B00E00B4B002938
:2065E000F5D1FF2008BD00BFAD5900087D590008D1590008015A0008315A0008615A00085B
:20660000CD5A0008FD5A0008557100085159000840F2B143984207D040F2B24398420FD0B5
:20662000B0F5966F08D109E0084B0AE010B50C4698472080002010BD02207047044B00E026
:20664000044B0029F2D10020704700BFC55A0008C15A0008C95A00082DE9F04107460C460E
:206660001646984623B11846F9F7C0FD85B200E0002567B1002C0CDD641B002C0BDD65B1EF
:206680002A464146384601F0BAFD012006E0002004E0002002E0002000E0002006B1357054
:2066A000BDE8F08170B5012803D030B1022806D001E0084E04E0022070BD074E00E0074ECE
:2066C0001D461446084633462A462146FFF7C4FF002070BD409200084C92000838920008C7
:2066E00000487047500000202DE9F041FBF7F8FF04461C4B1B689D6AFFF7F8F80646FFF798
:2067000017F9B6FBF0F0DFF87080B8FBF0F0F9F709FF06460F46681CB4FBF0F0B8FBF0F03F
:20672000F9F700FF04460D4600220F4B30463946F9F76EFF22462B46FAF794F8FAF7A2F91D
:206740000A4B186000220A4B30463946F9F760FF22462B46FAF786F8FAF794F9054B186023
:20676000BDE8F081440800200000F83F0805002000000C401005002000CA9A3B024B1B6843
:20678000186900F0010070474408002030B10170C2F34001417002F001028270704700BF0E
:2067A0000368064A12685A630368054A1268DA620268D36843F00303D36070470805002082
:2067C0001005002010B5094C2046FDF72BFC23681A6922F003021A6100225A622046FFF70F
:2067E000DFFF2046FDF706FC10BD00BF44080020124B1B681A69836F222B15D100B583B0F7
:206800000368998C90F85C000023ADF804308DF80630014001A8FFF7B9FF01A90848FEF7C6
:20682000EDFCFFF7CFFF06E00268138B9BB243F008031383704703B05DF804FB4408002072
:2068400050000020836F202B49D190F87030012B47D0012380F870308368B3F5805F0AD17D
:20686000036923B940F2FF13A0F85C301EE0FF23A0F85C301AE04BB903691BB9FF23A0F82C
:206880005C3013E07F23A0F85C300FE0B3F1805F09D103691BB97F23A0F85C3006E03F2319
:2068A000A0F85C3002E00023A0F85C300023C3672222826701688A6842F480528A6001685B
:2068C0008A6842F001028A60074A026680F8703001680A6842F490720A6018467047022022
:2068E00070470220704700BFF167000808B50348FFF7A8FFB0FA80F0400908BD10070020E5
:2069000008B50D4B1B7893B90A46014601200A4B187092B20948FDF715FE10B1022808D887
